S01400004D5055363035305F444D50362E73726563DD
S11300000C9468060C944D180C9474180C94900677
S11300100C9490060C9490060C9490060C94900604
S11300200C9490060C9490060C9490060C949006F4
S11300300C9490060C9490060C9490060C949006E4
S11300400C949B180C9490060C9458150C948A15D7
S11300500C9490060C9490060C9490060C949006C4
S11300600C94DB1D0C949006084AD73B3BCE016EE2
S113007084BCBFFDC12F3D6C74319ABD56833DDAFB
S11300803D00C77F11BED9E4BB4C3E916BAAAABE0A
S1130090000000803F004649464F206F7665726637
S11300A06C6F7721002900444D5020496E697469B2
S11300B0616C697A6174696F6E206661696C6564EC
S11300C02028636F64652000526573657474696EDB
S11300D067204649464F20616E6420636C656172F7
S11300E0696E6720494E5420737461747573206F70
S11300F06E65206C6173742074696D652E2E2E00FC
S113010053657474696E6720757020696E746572C6
S11301106E616C2034322D627974652028646566C2
S113012061756C742920444D50207061636B657453
S1130130206275666665722E2E2E004469736162B4
S11301406C696E6720444D502028796F7520747552
S1130150726E206974206F6E206C61746572292E32
S11301602E2E00444D5020697320676F6F642074F5
S11301706F20676F212046696E616C6C792E005286
S11301806573657474696E6720444D502E2E2E007D
S1130190456E61626C696E67204649464F2E2E2E6D
S11301A00053657474696E67207A65726F2D6D6F84
S11301B074696F6E20646574656374696F6E20641E
S11301C075726174696F6E20746F20302E2E2E004C
S11301D053657474696E67206D6F74696F6E206403
S11301E06574656374696F6E206475726174696F98
S11301F06E20746F2038302E2E2E0053657474696F
S11302006E67207A65726F2D6D6F74696F6E2064EE
S11302106574656374696F6E207468726573686F62
S11302206C6420746F203135362E2E2E0053657485
S113023074696E67206D6F74696F6E206465746590
S11302406374696F6E207468726573686F6C642080
S1130250746F20322E2E2E00436C656172696E67B6
S1130260204F54502042616E6B20666C61672E2EC5
S11302702E00537563636573732120444D502063CE
S11302806F6465207772697474656E20616E642092
S113029076657269666965642E0020627974657397
S11302A0290057726974696E6720444D5020636F4A
S11302B0646520746F204D5055206D656D6F7279A3
S11302C02062616E6B7320280053657474696E67D5
S11302D0206779726F2073656E73697469766974C7
S11302E07920746F202B2F2D20323030302064651C
S11302F0672F7365632E2E2E0053657474696E67C1
S113030020444C50462062616E64776964746820AE
S1130310746F203432487A2E2E2E0053657474691B
S11303206E672065787465726E616C206672616DAB
S1130330652073796E6320746F2054454D505F4F70
S113034055545F4C5B305D2E2E2E005365747469DA
S11303506E672073616D706C6520726174652074C2
S11303606F20323030487A2E2E2E00536574746913
S11303706E6720444D5020616E64204649464F5FAD
S11303804F464C4F5720696E746572727570747362
S113039020656E61626C65642E2E2E005365747444
S11303A0696E6720636C6F636B20736F757263652E
S11303B020746F205A204779726F2E2E2E005265BA
S11303C073657474696E6720493243204D61737498
S11303D0657220636F6E74726F6C2E2E2E005365DF
S11303E07474696E6720736C617665203020616473
S11303F0647265737320746F2030783638202873E4
S1130400656C66292E2E2E0044697361626C696ED8
S11304106720493243204D6173746572206D6F64A7
S1130420652E2E2E0053657474696E6720736C619B
S113043076652030206164647265737320746F2064
S1130440307837462E2E2E00696E76616C696421F1
S11304500076616C696421004F54502062616E6BB8
S1130460206973200052656164696E67204F54509F
S11304702062616E6B2076616C696420666C6167D2
S11304802E2E2E00526573657474696E67206D6537
S11304906D6F72792062616E6B2073656C65637435
S11304A0696F6E20746F20302E2E2E00526576698F
S11304B073696F6E204020757365725B31365D5BC6
S11304C0365D203D2000436865636B696E67206874
S11304D061726477617265207265766973696F6EA3
S11304E02E2E2E000A0A526573657474696E672095
S11304F04D5055363035302E2E2E00FB00003E0078
S11305000B0036000100020003000000650054FFE8
S1130510EF0000FA80000B128200010002000000CC
S1130520000000000000000000000000280000FFA0
S1130530FF4581FFFFFA7200000000000003E8009D
S113054000000100017FFFFFFE8001001B0000008E
S11305500000000000000000000000004000004017
S113056000000002CB47A220000000200000000091
S1130570000000400000006000000041FF00000097
S1130580000B2A0000165500002182FD872650FD2D
S1130590800000001F000000058000000000000033
S11305A00100000002000000030000400000000001
S11305B000046F0002653200005EC04000000000CD
S11305C00000000000000000000000FB8C6F5DFDD7
S11305D05D08D9007C733B006C12CC3200139D3251
S11305E000D0D632000800400001F4FFE680790212
S11305F00000000000D0D600002710FB00000040DF
S113060000000000000000000000000000000100E5
S113061000000000000100010000000000FA36FFA5
S1130620BC308E0005FBF0FFD95BC8FFD09ABE003A
S11306300010A9FFF41EB200CEBBF70000000100B9
S1130640000004000200020200000CFFC28000004F
S113065001800000CF800040000000000000000086
S1130660000000000006000000001400000000006C
S11306700000000000000000000000000000000076
S113068000000000000000000000000923A1350064
S11306900000000000000000000000000000000353
S11306A03F68B6793528BCC67ED16C8000FFFF4018
S11306B00000000000B26A0000000000000000001A
S11306C000000000003FF0000000300000000000C7
S11306D00000000000000000000000000000000016
S11306E000000000000000000040000000254D0054
S11306F02F706D000005AE000C02D0000000000059
S1130700650054FFEF00000000000000000100003D
S113071044000100058BC10000010000000000003E
S113072065000000540000FFEF000000000000001E
S113073000000000000000000000000000000000B5
S113074000000000000000000000000000000000A5
S11307500000000000000000000000000000010094
S11307600000020000000000000000000000000083
S11307700000000000000000000000000000000075
S11307800000000000000000000000001B0000004A
S11307900000000000000000000000000000000055
S11307A00000000000000000000000000000000045
S11307B00000000000000000000000001B0000001A
S11307C00000000000000000000000000000000025
S11307D00000000000000000000000000000000015
S11307E00000000000000000000000000000000005
S11307F00000000000000000000000D8DCBAA2F1F4
S1130800DEB2B8B4A88191F74A907F916AF3F9DB1C
S1130810A8F9B0BAA080F2CE81F3C2F1C1F2C3F359
S1130820CCA2B280F1C6D880BAA7DFDFDFF2A7C3BB
S1130830CBC5B6F087A2942448703C9540683458E0
S11308409B78A2F183922D557DD8B1B4B8A1D091F3
S113085080F270F370F27C80A8F101B09887D943DC
S1130860D886C988BAA1F20EB89780F1A9DFDFDF74
S1130870AADFDFDFF2AA4CCD6CA90CC92C9797979D
S113088097F1A989264666B0B4BA80ACDEF2CAF103
S1130890B28C02A9B69800890E161EB8A9B4992C78
S11308A0547CB08AA896365676F1B9AFB4B083C0FA
S11308B0B8A89711B18F98B9AFF024084410641800
S11308C0F1A329557DAF83B593AFF0002850F1A370
S11308D0869F61A6DADEDFD9FAA38696DB31A6D934
S11308E0F8DFBAA68FC2C5C7B28CC1B8A2DFDFDFFA
S11308F0A3DFDFDFD8D8F1B8A8B286B4980D355D90
S1130900B8AA98B0872D353DB2B6BAAF8C96198F78
S11309109FA70E161EB49AB8AA872C547CB9A3DEDE
S1130920DFDFA3B180F2C4CDC9F1B8A9B499830DB6
S1130930355D89B9A32D557DB593A30E161EA92C3B
S1130940547CB8B4B0F19783A81184A50998A38303
S1130950F0DA240844106418D8F1A529557DA5853A
S113096095021A2E3A565A4048F9F3A3D9F8F0984A
S1130970832408441064189782A8F111F098A224E3
S11309800844106418DAF3DED883A59401D9A302CD
S1130990F1A2C3C5C7D8F18492A24DDA2AD8486916
S11309A0D92AD86855DA32D85071D932D8705DDA7C
S11309B03AD85879D93AD87893A34DDA2AD84869DD
S11309C0D92AD86855DA32D85071D932D8705DDA5C
S11309D03AD85879D93AD878A88A9AF02850789E83
S11309E0F38818F19F1D98A8D908D8C89F129EF3C0
S11309F015A8DA1210D8F1AFC8978734B5B994A402
S1130A0021F3D922D8F22DF3D92AD8F235F3D932E9
S1130A10D881A4606061D961D86C6869D969D874D7
S1130A207071D971D8B1A384193D5DA3831A3E5E58
S1130A30931030811011B8B0AF8F94F2DA3ED8B46D
S1130A409AA88729DAF8D8879A35DAF8D8879A3DA8
S1130A50DAF8D8B1B9A49885022E56A581000C14F1
S1130A60A397B08AF12DD928D84DD948D86DD96823
S1130A70D8B1840DDA0ED8A32983DA2C0ED8A38436
S1130A804983DA2C4C0ED8B8B0A88A9AF520AADA91
S1130A90DFD8A840AAD0DADED8A860AADAD0DFD896
S1130AA0F19786A8319B069907AB9728889BF00C91
S1130AB0201440B8B0B4A88C9CF0042851791D309F
S1130AC01438B282ABD0982C505078789BF11AB07D
S1130AD0F08A9CA82951798B2951798A2470598BE1
S1130AE02058718A4469388B3940688A6448318B4C
S1130AF0304960A588200971584468113964493027
S1130B0019F1AC002C547CF08CA804285078F1889E
S1130B109726A85998AC8C02264666F0899CA82989
S1130B205179247059446938644831A98809205995
S1130B3070AB11384069A8193148608CA83C415CFD
S1130B40207C00F187981986A86E767EA999882D55
S1130B50557D9EB9A38A228A6E8A568A5E9FB18386
S1130B60062646660E2E4E6E9DB8AD002C547CF2C1
S1130B70B18CB499B9A32D557D8191AC38AD3AB5FA
S1130B808391AC2DD928D84DD948D86DD968D88C43
S1130B909DAE29D904AED851D904AED879D904D898
S1130BA081F39DAD008DAE1981ADD901D8F2AEDAD5
S1130BB026D88E912983A7D9ADADADADF32AD8D867
S1130BC0F1B0AC89913E5E76F3AC2E2EF1B18C5A25
S1130BD09CAC2C2828289CAC3018A8988128343C3C
S1130BE09724A728343C9C24F2B089AC912C4C6CFB
S1130BF08A9B2DD9D8D851D9D8D879D9D8D8F19EAB
S1130C0088A331DAD8D8912DD928D84DD948D86DB0
S1130C10D968D8B18393353D8025DAD8D88569DA87
S1130C20D8D8B49381A328343CF3AB8BF8A391B602
S1130C3009B4D9ABDEFAB0879CB9A3DDF120283022
S1130C40389AF12830389DF1A3A3A3A3F2A3B4905A
S1130C5080F2A3A3A3A3A3A3A3A3A3A3B2A3A3A325
S1130C60A3A3A3B087B599F128303898F1A3A3A31F
S1130C70A397A3A3A3A3F39BA330DCB9A7F12626D0
S1130C8026FED8FF0000000800020100000304074C
S1130C900000000000000000010204081020408051
S1130CA001020408102001020408102004040404B2
S1130CB00404040402020202020203030303030302
S1130CC000000000250028002B003210BA154C1B30
S1130CD011241FBECFEFD8E0DEBFCDBF11E0A0E0EE
S1130CE0B1E0EAECF0E402C005900D92A234B10741
S1130CF0D9F723E0A2E4B1E001C01D92A136B20706
S1130D00E1F716E0C8E6D6E004C02197FE010E9490
S1130D102F1FC536D107C9F70E94E8150C9463202C
S1130D200C940000FC018FE692E1A3E8BAE380830F
S1130D309183A283B38384839583A683B7838FE847
S1130D4092ECA5EFBCE380879187A287B3871486D2
S1130D50158616861786108A118A128A138A108EAF
S1130D60118E128E138E148E158E168E178E10A25F
S1130D7011A212A213A214A215A216A217A20895D8
S1130D80FC0144875587668777870895FF920F9300
S1130D901F93CF93DF93C62F142FF22E032F682FA8
S1130DA083E992E00E94C51A6C2F83E992E00E94C5
S1130DB0741ACF2DD02FCE01810F911D8C01C01735
S1130DC0D10731F0699183E992E00E94741AF7CF58
S1130DD083E992E00E94491B91E0811190E0892F00
S1130DE0DF91CF911F910F91FF900895CF93DF93DF
S1130DF01F92CDB7DEB749839E012F5F3F4F41E07D
S1130E000E94C6060F90DF91CF910895EF92FF9252
S1130E100F931F93CF93DF93C62F042FF22E132F1C
S1130E20682F83E992E00E94C51A6C2F83E992E04F
S1130E300E94741ACF2DD12F10E0101769F0698128
S1130E4083E992E00E94741A6881229683E992E011
S1130E500E94741A1F5FF1CF83E992E00E94491B3C
S1130E6091E0811190E0892FDF91CF911F910F9133
S1130E70FF90EF900895CF93DF9300D0CDB7DEB706
S1130E805A8349839E012F5F3F4F41E00E9406072A
S1130E900F900F90DF91CF9108953F924F925F9200
S1130EA06F927F928F929F92AF92BF92CF92DF9276
S1130EB0EF92FF920F931F93CF93DF9300D000D054
S1130EC000D0CDB7DEB7D82EC62E4D8379010E944F
S1130ED0E5184B015C01312C1E829D81892F90E025
S1130EE09C838B832801612C712CED813E16C8F5FF
S1130EF06D2D83E992E00E94C51A6C2D83E992E07E
S1130F000E94741A83E992E00E94491B6D2D83E9C3
S1130F1092E00E94C51A4B815C8143195109413208
S1130F20510514F040E250E06D2D83E992E00E94F7
S1130F30461B83E992E00E94E519892B09F443C01A
S1130F400115110569F10E94E518DC01CB0188192E
S1130F509909AA09BB0984159505A605B70500F1E9
S1130F6032C001151105A9F10E94E518DC01CB017D
S1130F7088199909AA09BB0920E030E08017910774
S1130F80A207B30730F1FD812F2F30E04E81842F6B
S1130F90440F990B82179307E4F48FEF8E8319C0E3
S1130FA0F7012E81E20FF11D27FDFA95FA83E983FB
S1130FB083E992E00E94ED19E981FA818083FE8140
S1130FC0FF5FFE83B6CF8D81813208F080E2380E58
S1130FD08CCF8E8126960FB6F894DEBF0FBECDBFA0
S1130FE0DF91CF911F910F91FF90EF90DF90CF9001
S1130FF0BF90AF909F908F907F906F905F904F9035
S11310003F9008950F931F9389019A0141E00E9434
S11310104D071F910F910895DF92EF92FF920F9366
S11310201F93CF93DF931F92CDB7DEB7D42E7901F0
S11310309801AE014F5F5F4F0E94020821E030E04B
S113104001C0220FDA94EAF799812923F70120835A
S11310500F90DF91CF911F910F91FF90EF90DF9050
S11310600895CF92DF92EF92FF920F931F93CF9345
S1131070DF931F92CDB7DEB7D42EC22E9701AE01F7
S11310804F5F5F4F0E9402088823F1F04D2D50E01E
S11310904C1951094F5F5F4F21E030E002C0220F2D
S11310A0331FCA94E2F721503109042E01C0220FE4
S11310B00A94EAF79981292330E002C035952795EF
S11310C04A95E2F7F80120830F90DF91CF911F91A9
S11310D00F91FF90EF90DF90CF900895EF92FF92E1
S11310E00F931F93CF93DF931F92CDB7DEB7182FC3
S11310F0062FF42EE22E2091060130910701AE0155
S11311004F5F5F4F0E940208898141E050E001C0B7
S1131110440FFA94EAF7EE2011F0482B02C04095F0
S113112048234983602F812F0E94F6060F90DF9198
S1131130CF911F910F91FF90EF900895DF92EF925E
S1131140FF920F931F93CF93DF931F92CDB7DEB718
S1131150182FF62EE42ED22E20910601309107018D
S1131160AE014F5F5F4F0E940208882339F12E2D94
S113117030E02D1931092F5F3F4F81E090E002C02C
S1131180880F991FDA94E2F70197022E01C0880FA5
S11311900A94EAF7402F50E0BA0102C0660F771FA5
S11311A02A95E2F7482F4095998149238623482BB5
S11311B049836F2D812F0E94F60601C080E00F90B5
S11311C0DF91CF911F910F91FF90EF90DF900895E1
S11311D0FC0160830895462F69E1FC0180810C9431
S11311E0F6060F93062F23E045E06AE1FC018081B7
S11311F00E949E080F9108950F93062F23E042E06A
S11312006AE1FC0180810E949E080F9108950F936A
S1131210062F22E044E06BE1FC0180810E949E08DD
S11312200F9108950F93062F22E044E06CE1FC0136
S113123080810E949E080F9108950F93062F23E04A
S113124042E06CE1FC0180810E949E080F910895A8
S1131250462F6FE1FC0180810C94F606462F60E274
S1131260FC0180810C94F606462F61E2FC0180812A
S11312700C94F606462F62E2FC0180810C94F6067B
S1131280643040F4262F220F620F6B5DFC018081D5
S11312900C94F6060895462F68E3FC0180810C94B3
S11312A0F606CF93DF93EC012091060130910701FC
S11312B0AC014F5F5F4F6AE388810E940208898115
S11312C0DF91CF910895262F46E06AE6FC018081E4
S11312D00C946E08262F45E06AE6FC0180810C948C
S11312E06E0821E042E06AE6FC0180810C946E08FD
S11312F021E041E06AE6FC0180810C946E0821E063
S113130047E06BE6FC0180810C946E08262F46E0D2
S11313106BE6FC0180810C946E080F93062F23E08A
S113132042E06BE6FC0180810E949E080F910895C3
S1131330CF93DF93EC0161E00E948D0960E0CE0160
S11313400E94070960E0CE010E94120960E0CE010C
S1131350DF91CF910C9486090F931F93CF93DF9362
S1131360EC0100910601109107019C012F5F3F4F92
S113137042E062E788810E944D0789819A8198271B
S113138089279827DF91CF911F910F9108950F938B
S11313901F93442359F09B01FC0100910601109115
S11313A0070164E780810E944D0702C0FB0110829F
S11313B01F910F910895EF92FF920F931F93CF9374
S11313C0DF93EC01E0900601F09007018C010F5FC0
S11313D01F4F26E046E065E788810E943108898135
S11313E0DF91CF911F910F91FF90EF9008950F938C
S11313F01F93CF93DF93EC01009106011091070135
S11314009C012F5F3F4F40E060E088810E940C0800
S11314108981DF91CF911F910F910895262F40E08C
S113142060E0FC0180810C946E080F931F93CF93AE
S1131430DF93EC018B010E94DB09883310F06DE728
S113144001C06AE0A8018881DF91CF911F910F91BB
S11314500C943B07AB0163E1FC0180810C943B07D6
S1131460AB0165E1FC0180810C943B07AB0167E1B2
S1131470FC0180810C943B07262F47E06AE6FC01BF
S113148080810C946E0821E043E06AE6FC018081CF
S11314900C946E086F712111606241116064462FD3
S11314A06DE6FC0180810C94F606462F6EE6FC0185
S11314B080810C94F606CF93DF93EC012091060112
S11314C030910701AC014F5F5F4F6FE688810E9446
S11314D002088981DF91CF9108952F923F924F9214
S11314E05F926F927F928F929F92AF92BF92CF92B0
S11314F0DF92EF92FF920F931F93CF93DF9300D06D
S113150000D01F92CDB7DEB79D838C831B013A01B7
S11315102983502EEB82CA8220E040E069810E9438
S11315204A0A602F8C819D810E94550AEB80EE202F
S113153031F080E190E00E94351F5C0102C0A12CD3
S1131540B12C8A81882331F080E190E00E94351F1C
S11315506C0102C0C12CD12CE12CF12CE614F7044F
S113156008F07BC0C70140966816790618F4462C2B
S11315704E1802C080E1482E842D90E020E031E036
S1131580251931092817390714F4452C4194EA81A7
S1131590EE2371F0D60180E090E0841560F4F70149
S11315A0E80FF91FE20DF31DE491ED930196F5CFD9
S11315B06101CE0CDF1C9601442D6FE6EC81FD81A8
S11315C080810E94C606842C912CFB81FF2361F14B
S11315D0A114B10449F120E040E069818C819D812E
S11315E00E944A0A652D8C819D810E94550A0091B2
S11315F00601109107019501442D6FE6EC81FD81F0
S113160080810E944D07A401B501C6010E945620A5
S1131610892B51F0C5010E94CD1FFA81FF2351F19E
S1131620C6010E94CD1F26C0E80CF91C540CE61418
S1131630F70408F093CF511003C089818F5F898329
S113164020E040E069818C819D810E944A0A652DD9
S11316508C819D810E94550A81CFEB81EE2319F084
S1131660C5010E94CD1FFA81FF2331F0C6010E94FB
S1131670CD1F02C080E001C081E00F900F900F9059
S11316800F900F90DF91CF911F910F91FF90EF90EA
S1131690DF90CF90BF90AF909F908F907F906F908E
S11316A05F904F903F902F900895CF92EF920F93B9
S11316B0CC24C3940E946D0A0F91EF90CF900895AB
S11316C0462F60E7FC0180810C94F606462F61E703
S11316D0FC0180810C94F60681E080934201089518
S11316E0AF92BF92CF92EF920F93CF93DF9300D03C
S11316F0CDB7DEB75C0164EE74E08DEE91E00E943C
S11317006716C5010E947F096EE170E080E090E0F9
S11317100E94161960E0C5010E94860921E041E09B
S113172060E1C5010E944A0A66E0C5010E94550AAB
S113173066EC74E08DEE91E00E9467166CEA74E04A
S11317408DEE91E00E943616C5010E945B0A4AE0C4
S113175050E0682F8DEE91E00E94D61664E874E0A4
S11317608DEE91E00E94671620E040E060E0C50144
S11317700E944A0A65E674E08DEE91E00E946716C5
S113178068E574E08DEE91E00E943616C5010E9472
S1131790F709811103C068E474E002C061E574E0F4
S11317A08DEE91E00E94671665E274E08DEE91E0A3
S11317B00E9467164FE760E0C5010E94400968E097
S11317C074E08DEE91E00E94671660E0C5010E940E
S11317D06A096EED73E08DEE91E00E94671648E6AB
S11317E060E0C5010E9440096EEB73E08DEE91E06C
S11317F00E946716C5010E94780964E170E080E0E8
S113180090E00E9416196CE973E08DEE91E00E945D
S1131810671663E0C5010E948D096BE673E08DEEE7
S113182091E00E94671662E1C5010E944B096BE4D6
S113183073E08DEE91E00E94671664E0C5010E949A
S1131840EB086BE173E08DEE91E00E94671661E0B6
S1131850C5010E94F10869EF72E08DEE91E00E94EB
S1131860671663E0C5010E94FC0869EC72E08DEE26
S113187091E00E94671663E0C5010E94070962EACD
S113188072E08DEE91E00E9436164AE050E069E87D
S113189077E08DEE91E00E9436176AE972E08DEEF2
S11318A091E00E946716EE24E39400E020E049E80A
S11318B057E06BEF74E0C5010E94550B882309F4CF
S11318C08AC062E772E08DEE91E00E946716198289
S11318D081E08A83C12C06E122E042E050E0BE01AF
S11318E06F5F7F4FC5010E946D0A63E0C5010E94CE
S11318F0600B60E0C5010E94660B68E572E08DEE46
S113190091E00E94671660E0C5010E940E0A6DE234
S113191072E08DEE91E00E94671662E0C5010E94BC
S113192028096BEF71E08DEE91E00E9467166CE977
S1131930C5010E94340960ED71E08DEE91E00E94D2
S1131940671660E5C5010E942E0961EA71E08DEE1B
S113195091E00E94671660E0C5010E943A0960E9BF
S113196071E08DEE91E00E94671661E0C5010E946E
S113197063096FE771E08DEE91E00E946716C5017F
S11319800E94430A63E671E08DEE91E00E946716BF
S11319906BE371E08DEE91E00E94671660E0C50193
S11319A00E943C0A60E071E08DEE91E00E946716AF
S11319B08AE290E0F501928B818B68EC70E08DEE09
S11319C091E00E946716C5010E947109C5010E9439
S11319D0510980E001C081E00F900F90DF91CF9119
S11319E00F91EF90CF90BF90AF900895CF93DF9376
S11319F0DB01FA01309719F4EC01EF85F889808155
S1131A00918198278927982711969C938E93848196
S1131A10958198278927982713969C938E931297DC
S1131A208085918598278927982715969C938E936E
S1131A3014978485958598278927982717969C93CA
S1131A408E93169780E0DF91CF910895FF920F93C4
S1131A501F93CF93DF93CDB7DEB728970FB6F894D3
S1131A60DEBF0FBECDBF8B01BE016F5F7F4F0E94F3
S1131A70F60CF82E81114CC069817A81072E000C76
S1131A80880B990B0E94641220E030E040E858E390
S1131A900E944813F80160837183828393836B816E
S1131AA07C81072E000C880B990B0E94641220E0A5
S1131AB030E040E858E30E944813F80164837583DA
S1131AC0868397836D817E81072E000C880B990B8A
S1131AD00E94641220E030E040E858E30E9448137A
S1131AE0F80160877187828793876F817885072ED5
S1131AF0000C880B990B0E94641220E030E040E84F
S1131B0058E30E944813F80164877587868797878E
S1131B108F2D28960FB6F894DEBF0FBECDBFDF9190
S1131B20CF911F910F91FF9008954F925F926F9202
S1131B307F928F929F92AF92BF92CF92DF92EF9259
S1131B40FF92CF93DF93CDB7DEB72A970FB6F89401
S1131B50DEBF0FBECDBF7A876987FA01C480D58006
S1131B60E680F780448455846684778480809180FD
S1131B70A280B38080859185A285B38589839A8369
S1131B80AB83BC83A3019201C701B6010E94481331
S1131B906D837E838F83988729813A814B815C8111
S1131BA0C501B4010E9448139B01AC016D817E8183
S1131BB08F8198850E94DD109B01AC010E94DE108C
S1131BC0A985BA856D937D938D939C931397A501F5
S1131BD09401C701B6010E9448136D837E838F83ED
S1131BE0988729813A814B815C81C301B2010E94AB
S1131BF048139B01AC016D817E818F8198850E9481
S1131C00DE109B01AC010E94DE10E985FA85648335
S1131C10758386839783A5019401C501B4010E944D
S1131C2048134B015C01A7019601C701B6010E944C
S1131C3048139B01AC01C501B4010E94DD106B0186
S1131C407C0129813A814B815C81CA01B9010E94DE
S1131C5048139B01AC01C701B6010E94DD106B0162
S1131C607C01A3019201C301B2010E9448139B01AC
S1131C70AC01C701B6010E94DE10A985BA85189689
S1131C806D937D938D939C931B9780E02A960FB65A
S1131C90F894DEBF0FBECDBFDF91CF91FF90EF90E0
S1131CA0DF90CF90BF90AF909F908F907F906F9078
S1131CB05F904F9008952F923F924F925F926F9250
S1131CC07F928F929F92AF92BF92CF92DF92EF92C8
S1131CD0FF920F931F93CF93DF9300D000D000D0D7
S1131CE0CDB7DEB78B011A013E832D83FA01C08084
S1131CF0D180E280F380A7019601C701B6010E945A
S1131D00DE1069837A838B839C83F10184809580C0
S1131D10A680B780A5019401C501B4010E94DE101C
S1131D202B013C0129813A814B815C81C701B601B9
S1131D300E9448136B017C01A3019201C501B40107
S1131D400E9448139B01AC01C701B6010E94DE103A
S1131D5020E030E040E85FE30E94DD106B017C018D
S1131D60F1012085318542855385C301B2010E946A
S1131D7048132B013C01F10124853585468557859F
S1131D8069817A818B819C810E9448139B01AC01FB
S1131D90C301B2010E94DD10A70196010E945D11EA
S1131DA0F8016083718382839383ED81FE81648172
S1131DB0758186819781C084D184E284F3849B01F8
S1131DC0AC010E9448134B015C01A7019601C701B5
S1131DD0B6010E9448139B01AC01C501B4010E94E5
S1131DE0DE100E94BB139B01AC01ED81FE8160817A
S1131DF07181828193810E945D116B017C01F801E4
S1131E006483758386839783ED81FE812085318584
S1131E104285538564817581868197810E945D1115
S1131E20F801608771878287938720E030E0A901F9
S1131E30ED81FE8160857185828593850E94BC1148
S1131E4087FF1BC020E030E0A901C701B6010E9452
S1131E503B13A701960118162CF46BED7FE089E47F
S1131E6090E404C06BED7FE089E490EC0E94DD1007
S1131E70F801648375838683978380E026960FB682
S1131E80F894DEBF0FBECDBFDF91CF911F910F91AC
S1131E90FF90EF90DF90CF90BF90AF909F908F9086
S1131EA07F906F905F904F903F902F900895809116
S1131EB0B101882309F4D5C02091AB013091AC0164
S1131EC08091AD019091AE0140914201411103C056
S1131ED028173907C8F3109242018AED91E00E9455
S1131EE051098093B0018AED91E00E94AC099C01F4
S1131EF09093AC018093AB019091B00194FD03C029
S1131F002115344051F48AED91E00E94710966E98B
S1131F1070E08DEE91E00C94671691FFA2C04091A1
S1131F20AD015091AE018091AB019091AC01841749
S1131F30950748F48AED91E00E94AC099093AC01B6
S1131F408093AB01ECCF6BE671E08AED91E00E94E7
S1131F50C7098091AB019091AC012091AD01309102
S1131F60AE01821B930B9093AC018093AB014BE6C3
S1131F7051E06BE571E08AED91E00E94260D4BE59E
S1131F8051E06FE471E08AED91E00E94950D2FE439
S1131F9031E04BE551E063E471E08AED91E00E94A9
S1131FA05B0E20E030E044E353E460914301709120
S1131FB0440180914501909146010E9448132BED04
S1131FC03FE049E450E40E94C111AB01BC0122E0AE
S1131FD030E08DEE91E00E9418186CE071E08DEE17
S1131FE091E00E945A1620E030E044E353E460910B
S1131FF04701709148018091490190914A010E94E2
S113200048132BED3FE049E450E40E94C111AB01B9
S1132010BC0122E030E08DEE91E00E9418186CE0E3
S113202071E08DEE91E00E945A1620E030E044E326
S113203053E460914B0170914C0180914D0190915A
S11320404E010E9448132BED3FE049E450E40E9406
S1132050C111AB01BC0122E030E08DEE91E00C94A3
S11320601A18089568E68AED91E00E94E80882EB68
S113207091E00E949206EBE5F1E080E090E0A0E8B8
S1132080BFE380839183A283B38314821582168273
S11320901782108611861286138614861586168674
S11320A01786EFE4F1E01082118212821382148207
S11320B01582168217821086118612861386089559
S11320C083E992E00E94B31A88E18093B8008AED14
S11320D091E00E9498098AED91E00E94700B809330
S11320E0AF016CED70E08AED91E00E942A0A6CE485
S11320F070E08AED91E00E94300A6BEA7FEF8AED8E
S113210091E00E94360A68E976E08AED91E00E9447
S1132110150A8091AF01811128C061E08AED91E038
S11321200E943C0A60E08AED91E00E94FC0860E0B5
S11321308AED91E00E941D0943E050E06CE67BE0EB
S113214080E00E942D188AED91E00E94510980934D
S1132150B00181E08093B1018091EB019091EC0199
S11321609093AE018093AD0114C067EA70E08DEEE8
S113217091E00E9436164AE050E06091AF018DEE86
S113218091E00E94CF1665EA70E08DEE91E00E9426
S1132190671626E040E052EC61E070E08DEE91E0DD
S11321A00E94F0148DEE91E00E94CE1440E050E0C5
S11321B0BA0182EB91E00C94C0065058BB27AA27C1
S11321C00E94F5100C9401130E94F31238F00E943F
S11321D0FA1220F039F49F3F19F426F40C94C91232
S11321E00EF4E095E7FB0C94C312E92F0E9412133E
S11321F058F3BA17620773078407950720F079F438
S1132200A6F50C9434130EF4E0950B2EBA2FA02DE2
S11322100B01B90190010C01CA01A0011124FF278F
S1132220591B99F0593F50F4503E68F11A16F0408A
S1132230A22F232F342F4427585FF3CF4695379589
S11322402795A795F0405395C9F77EF41F16BA0B4E
S1132250620B730B840BBAF09150A1F0FF0FBB1FFC
S1132260661F771F881FC2F70EC0BA0F621F731F45
S1132270841F48F4879577956795B795F7959E3FA2
S113228008F0B0CF9395880F08F09927EE0F979533
S1132290879508950E94F31260F080E891E009F4B4
S11322A09EEF0E94FA1228F040E851E071F45EEFCC
S11322B00CC00C94C9120C943413E92FE0780E94DA
S11322C0121340F3092E052AB1F3261737074807DE
S11322D0590738F00E2E07F8E02569F0E025E06490
S11322E00AC0EF6307F8009407FADB01B9019D0106
S11322F0DC01CA01AD01EF930E94D8110E940113C1
S11323000E948D115F91552339F02BED3FE049E494
S113231050FD49EC0C94DE100895DF93DD27B92FAE
S1132320BF7740E85FE31616170648075B0718F403
S1132330D92F0E9440139F938F937F936F930E9492
S1132340FB13E8E6F0E00E94CC120E9401132F91E7
S11323503F914F915F910E945B13DD2351F09058A0
S1132360A2EA2AED3FE049EC5FE3D0785D270E94C2
S1132370F510DF910C9401130E949F1208F481E080
S113238008950E94D5110C9401130E94FA1258F07A
S11323900E94F31240F029F45F3F29F00C94C31219
S11323A051110C9435130C94C9120E94121368F342
S11323B09923B1F3552391F3951B550BBB27AA27FA
S11323C062177307840738F09F5F5F4F220F331F34
S11323D0441FAA1FA9F335D00E2E3AF0E0E832D0FC
S11323E091505040E695001CCAF72BD0FE2F29D0FF
S11323F0660F771F881FBB1F261737074807AB07D1
S1132400B0E809F0BB0B802DBF01FF2793585F4F45
S11324103AF09E3F510578F00C94C3120C94351396
S11324205F3FE4F3983ED4F3869577956795B79527
S1132430F7959F5FC9F7880F911D9695879597F932
S11324400895E1E0660F771F881FBB1F62177307AB
S11324508407BA0720F0621B730B840BBA0BEE1FC0
S113246088F7E09508950E941A1388F09F5798F012
S1132470B92F9927B751B0F0E1F0660F771F881F85
S1132480991F1AF0BA95C9F714C0B13091F00E949F
S11324903413B1E008950C943413672F782F8827F0
S11324A0B85F39F0B93FCCF3869577956795B395C6
S11324B0D9F73EF490958095709561957F4F8F4F35
S11324C09F4F0895E89409C097FB3EF4909580953A
S11324D0709561957F4F8F4F9F4F9923A9F0F92FE6
S11324E096E9BB279395F695879577956795B79564
S11324F0F111F8CFFAF4BB0F11F460FF1BC06F5F4A
S11325007F4F8F4F9F4F16C0882311F096E911C05B
S1132510772321F09EE8872F762F05C0662371F07C
S113252096E8862F70E060E02AF09A95660F771F90
S1132530881FDAF7880F9695879597F90895990F6C
S11325400008550FAA0BE0E8FEEF16161706E80779
S1132550F907C0F012161306E407F50798F0621B9A
S1132560730B840B950B39F40A2661F0232B242B6F
S1132570252B21F408950A2609F4A140A6958FEF8E
S1132580811D811D089597F99F6780E870E060E0E0
S113259008959FEF80EC0895DF93CF931F930F93DB
S11325A0FF92EF92DF927B018C01689406C0DA2ED1
S11325B0EF010E945B13FE01E894A59125913591EA
S11325C045915591A6F3EF010E94F510FE01970184
S11325D0A801DA9469F7DF90EF90FF900F911F91B3
S11325E0CF91DF91089500240A9416161706180651
S11325F00906089500240A94121613061406050603
S11326000895092E0394000C11F4882352F0BB0F93
S113261040F4BF2B11F460FF04C06F5F7F4F8F4FF6
S11326209F4F089557FD9058440F551F59F05F3F31
S113263071F04795880F97FB991F61F09F3F79F0E0
S113264087950895121613061406551FF2CF469562
S1132650F1DF08C0161617061806991FF1CF8695E4
S11326607105610508940895E894BB2766277727C8
S1132670CB0197F908950E949F1208F48FEF0895F3
S11326809B01AC0160E070E080E89FE30C94C11111
S11326900E945B130C9401130E94F31238F00E9401
S11326A0FA1220F0952311F00C94C3120C94C91261
S11326B011240C9435130E94121370F3959FC1F3E7
S11326C0950F50E0551F629FF001729FBB27F00DDC
S11326D0B11D639FAA27F00DB11DAA1F649F662731
S11326E0B00DA11D661F829F2227B00DA11D621F80
S11326F0739FB00DA11D621F839FA00D611D221F3A
S1132700749F3327A00D611D231F849F600D211D1D
S1132710822F762F6A2F11249F5750409AF0F1F0A0
S113272088234AF0EE0FFF1FBB1F661F771F881F09
S113273091505040A9F79E3F510580F00C94C3126C
S11327400C9435135F3FE4F3983ED4F38695779564
S11327506795B795F795E7959F5FC1F7FE2B880FAF
S1132760911D9695879597F9089519F416F40C948C
S1132770C9120C94FF130E941A13B8F39923C9F3D6
S1132780B6F39F57550B87FF0E940D140024A0E653
S113279040EA900180585695979528F4805C660F1E
S11327A0771F881F20F026173707480730F4621B6D
S11327B0730B840B202931294A2BA695179407946F
S11327C0202531254A2758F7660F771F881F20F0E8
S11327D026173707480730F4620B730B840B200D60
S11327E0311D411DA09581F7B901842F9158880F9F
S11327F09695879508959B01AC010C9448139F3FCF
S113280031F0915020F4879577956795B795880FA7
S1132810911D9695879597F9089591505040660FAC
S1132820771F881FD2F70895FC01918D228D892F7F
S113283090E0805C9F4F821B91098F7399270895C4
S1132840FC01918D828D981731F0828DE80FF11D76
S1132850858D90E008958FEF9FEF0895FC01918D91
S1132860828D981761F0828DDF01A80FB11D5D96EE
S11328708C91928D9F5F9F73928F90E008958FEF5C
S11328809FEF0895FC01538D448D252F30E0842F54
S113289090E0821B930B541710F0CF960895019784
S11328A0089580EB95E1892B49F080E090E0892B35
S11328B029F00E94B01581110C9400000895FC01C8
S11328C0848DDF01A80FB11DA35ABF4F2C91848DB5
S11328D090E001968F739927848FA689B7892C93EA
S11328E0A089B1898C91837080648C93938D848D3D
S11328F0981306C00288F389E02D80818F7D808340
S11329000895EF92FF920F931F93CF93DF93EC01FF
S113291081E0888F9B8D8C8D981305C0E889F98997
S1132920808185FD26C0F62E0B8D10E00F5F1F4FB2
S11329300F731127E02E8C8DE8120CC00FB607FC24
S1132940FACFE889F989808185FFF5CFCE010E940D
S11329505F14F1CF8B8DFE01E80FF11DE35AFF4F99
S1132960F0829FB7F8940B8FEA89FB89808180629B
S11329700AC09FB7F894EE89FF896083E889F989D2
S113298080818370806480839FBF81E090E0DF91C9
S1132990CF911F910F91FF90EF900895CF93DF9304
S11329A0EC01888D8823C9F0EA89FB89808185FD43
S11329B005C0A889B9898C9186FD0FC00FB607FCA4
S11329C0F5CF808185FFF2CFA889B9898C9185FFE5
S11329D0EDCFCE010E945F14E7CFDF91CF91089530
S11329E0CF92DF92EF92FF921F93CF93DF93EC018C
S11329F06A017B01122FE889F98982E080834115FD
S1132A00514E61057105B1F060E079E08DE390E02D
S1132A10A70196010E940D1FDA01C9010197A109BE
S1132A20B109B695A795979587959C01211580E1E5
S1132A303807A8F0E889F989108260E874E88EE123
S1132A4090E0A70196010E940D1FDA01C9010197C8
S1132A50A109B109B695A795979587959C01EC8531
S1132A60FD853083EE85FF852083188EEC89FD89F2
S1132A701083EA89FB89808180618083EA89FB89EC
S1132A80808188608083EA89FB8980818068808373
S1132A90EA89FB8980818F7D8083DF91CF911F91AB
S1132AA0FF90EF90DF90CF90089580E090E008953C
S1132AB01F920F920FB60F9211242F938F939F930F
S1132AC0EF93FF93E091FD01F091FE018081E0918D
S1132AD00302F091040282FD12C0908180910602EB
S1132AE08F5F8F7320910702821751F0E0910602E5
S1132AF0F0E0E351FE4F958F8093060201C0808180
S1132B00FF91EF919F918F912F910F900FBE0F9096
S1132B101F9018951F920F920FB60F9211242F93A6
S1132B203F934F935F936F937F938F939F93AF9351
S1132B30BF93EF93FF938DEE91E00E945F14FF919A
S1132B40EF91BF91AF919F918F917F916F915F9121
S1132B504F913F912F910F900FBE0F901F9018959A
S1132B608DEE91E00E94141421E0892B09F420E0F9
S1132B70822F0895EDEEF1E01382128288EE93E045
S1132B80A0E0B0E084839583A683B78382E191E0DB
S1132B909183808385EC90E09587848784EC90E032
S1132BA09787868780EC90E0918B808B81EC90E016
S1132BB0938B828B82EC90E0958B848B86EC90E0F7
S1132BC0978B868B118E128E138E148E0895089512
S1132BD00E9452190E94E7150E946010C1E5D4E1D9
S1132BE00E94570F2097E1F30E945114F9CFCF921E
S1132BF0DF92EF92FF920F931F93CF93DF936C01B9
S1132C007A018B01C0E0D0E0CE15DF0581F0D80158
S1132C106D918D01D601ED91FC910190F081E02D33
S1132C20C6010995892B11F02196EECF7E01C701CB
S1132C30DF91CF911F910F91FF90EF90DF90CF9094
S1132C4008956115710579F0FB0101900020E9F701
S1132C503197AF01461B570BDC01ED91FC910280CB
S1132C60F381E02D099480E090E00895EF92FF92C3
S1132C700F931F93CF93DF938C017B01C0E0D0E0CF
S1132C80F701EC0FFD1F6491662361F0D801ED910B
S1132C90FC910190F081E02DC8010995892B11F078
S1132CA02196EECFCE01DF91CF911F910F91FF902E
S1132CB0EF9008950C942116DC01ED91FC910190A4
S1132CC0F081E02D099460E271E00C9421160F93D9
S1132CD01F93CF93DF93EC010E9436168C01CE0133
S1132CE00E946316800F911FDF91CF911F910F9166
S1132CF008958F929F92AF92BF92EF92FF920F939B
S1132D001F93CF93DF93CDB7DEB7A1970FB6F89497
S1132D10DEBF0FBECDBF7C01FA01CB0119A2223068
S1132D2008F42AE08E010F5D1F4F822E912CA12CF6
S1132D30B12CBF01A50194010E940D1FF901CA0124
S1132D40015011096A3010F4605D01C0695CD8015A
S1132D506C93232B242B252B61F7B801C7010E9408
S1132D602116A1960FB6F894DEBF0FBECDBFDF913A
S1132D70CF911F910F91FF90EF90BF90AF909F90D4
S1132D808F9008952115310541F4DC01ED91FC91FA
S1132D900190F081E02D642F09940C9479169A0126
S1132DA0462F50E060E070E00C94C2160F931F931E
S1132DB0CF93DF93EC010E94CF168C01CE010E94C9
S1132DC06316800F911FDF91CF911F910F9108958A
S1132DD09A01AB0160E070E00C94C216CF92DF92CE
S1132DE0EF92FF920F931F93CF93DF932115310539
S1132DF081F4DC01ED91FC910190F081E02D642FD0
S1132E00DF91CF911F910F91FF90EF90DF90CF90C2
S1132E1009942A30310501F577FF1DC06A017B0151
S1132E20EC016DE20E945C168C0144275527BA011F
S1132E304C195D096E097F092AE0CE010E947916BA
S1132E40800F911FDF91CF911F910F91FF90EF9011
S1132E50DF90CF9008952AE0DF91CF911F910F91D9
S1132E60FF90EF90DF90CF900C9479169A01AB010C
S1132E70770F660B770B0C94EE167F928F929F92CE
S1132E80AF92BF92CF92DF92EF92FF920F931F9374
S1132E90CF93DF938C016A017B01722E9A01AB01FF
S1132EA0C701B6010E94081F882319F063E271E08C
S1132EB027C046015701E894B7F82FEF3FEF4FE7DB
S1132EC05FE7C501B4010E94081F81110DC02FEFF7
S1132ED03FEF4FE75FE7C501B4010E94BC1118162C
S1132EE01CF467E271E00CC02FEF3FEF4FE75FE4A3
S1132EF0C701B6010E943B13181694F46BE271E00B
S1132F00C801DF91CF911F910F91FF90EF90DF9057
S1132F10CF90BF90AF909F908F907F900C9421168C
S1132F202FEF3FEF4FE75FECC701B6010E94BC11E2
S1132F3087FDE4CF20E030E0A901C701B6010E947B
S1132F40BC1187FF0AC06DE2C8010E945C16EC0147
S1132F50F7FAF094F7F8F09402C0C0E0D0E0B12C96
S1132F6060E070E080E09FE37B1441F020E030E01B
S1132F7040E251E40E94C111B394F6CFA701960137
S1132F800E94DE106B017C010E9433124B015C0134
S1132F902AE0AB01BC01C8010E947916C80FD91FF1
S1132FA07720B9F1C501B4010E9462129B01AC0102
S1132FB0C701B6010E94DD106B017C016EE2C801FD
S1132FC00E945C16C80FD91F20E030E040E251E4B3
S1132FD0C701B6010E9448134B015C010E943312E1
S1132FE06B017C014AE050E0C8010E94E816C80F5A
S1132FF0D91FB60180E090E00E9462129B01AC01EF
S1133000C501B4010E94DD106B017C017A9471103A
S1133010DBCFCE01DF91CF911F910F91FF90EF9005
S1133020DF90CF90BF90AF909F908F907F90089546
S11330300C943D170F931F93CF93DF93EC010E94E1
S11330403D178C01CE010E946316800F911FDF9102
S1133050CF911F910F91089508958230E8F4E82FDD
S1133060F0E0EE0FFF1FE85FFE4F71836083813055
S113307041F0809169008C7F482B40936900E89A65
S1133080089580916900837F440F551F440F551F95
S1133090482B40936900E99A08951F920F920FB646
S11330A00F9211242F933F934F935F936F937F93CA
S11330B08F939F93AF93BF93EF93FF93E091080196
S11330C0F09109010995FF91EF91BF91AF919F9103
S11330D08F917F916F915F914F913F912F910F90BD
S11330E00FBE0F901F9018951F920F920FB60F925C
S11330F011242F933F934F935F936F937F938F93F9
S11331009F93AF93BF93EF93FF93E0910A01F091E4
S11331100B010995FF91EF91BF91AF919F918F9111
S11331207F916F915F914F913F912F910F900FBEBF
S11331300F901F9018951F920F920FB60F921124A3
S11331402F933F938F939F93AF93BF9380918B0261
S113315090918C02A0918D02B0918E0230918A02DE
S113316023E0230F2D3720F40196A11DB11D05C0C6
S113317026E8230F0296A11DB11D20938A02809395
S11331808B0290938C02A0938D02B0938E02809157
S11331908F0290919002A0919102B09192020196B7
S11331A0A11DB11D80938F0290939002A093910270
S11331B0B0939202BF91AF919F918F913F912F91C4
S11331C00F900FBE0F901F9018952FB7F894609131
S11331D08B0270918C0280918D0290918E022FBF90
S11331E008953FB7F89480918F0290919002A09136
S11331F09102B091920226B5A89B05C02F3F19F009
S11332000196A11DB11D3FBFBA2FA92F982F882762
S1133210820F911DA11DB11DBC01CD0142E0660FBD
S1133220771F881F991F4A95D1F708958F929F920F
S1133230AF92BF92CF92DF92EF92FF926B017C012B
S11332400E94F1184B015C01C114D104E104F104A2
S113325001F10E94501B0E94F118DC01CB01881976
S11332609909AA09BB09883E9340A105B10560F3F9
S113327021E0C21AD108E108F10888EE880E83E043
S1133280981EA11CB11CC114D104E104F10419F766
S1133290DBCFFF90EF90DF90CF90BF90AF909F90E7
S11332A08F900895789484B5826084BD84B58160DC
S11332B084BD85B5826085BD85B5816085BDEEE63A
S11332C0F0E0808181608083E1E8F0E01082808119
S11332D082608083808181608083E0E8F0E0808187
S11332E081608083E1EBF0E0808184608083E0EBA7
S11332F0F0E0808181608083EAE7F0E0808184608F
S113330080838081826080838081816080838081EA
S1133310806880831092C1000895833081F028F47E
S1133320813099F08230A1F008958730A9F0883077
S1133330B9F08430D1F4809180008F7D03C08091F6
S113334080008F7780938000089584B58F7702C0C2
S113335084B58F7D84BD08958091B0008F7703C0BC
S11333608091B0008F7D8093B00008951F93CF9318
S1133370DF93282F30E0F901EC57F34F8491F901E2
S1133380E856F34FD491F901E455F34FC491CC239B
S1133390C1F0162F81110E948D19EC2FF0E0EE0F71
S11333A0FF1FE054F34FA591B4919FB7F894111106
S11333B004C08C91D095D82302C0EC91DE2BDC9311
S11333C09FBFDF91CF911F9108958091C70290E034
S11333D02091C802821B910908959091C80280919E
S11333E0C702981750F4E92FF0E0E753FD4F20810E
S11333F030E09F5F9093C80202C02FEF3FEFC901F6
S11334000895E091C8028091C702E81730F4F0E013
S1133410E753FD4F808190E008958FEF9FEF08956B
S11334200895CF93DF93EC01E0919F02F091A00205
S11334303097F1F09091C8028091C7029817C0F0BC
S113344090E0292F30E02617370754F4DE01A20F4D
S1133450B31F4C91D901A753BD4F4C939F5FF1CF3C
S11334601092C8026093C702CB01DF91CF910994F7
S1133470DF91CF910895E091A102F091A2023097DB
S113348029F01092A5021092A40209940895CF92F3
S1133490DF92EF92FF920F931F93CF93DF937C0100
S11334A0CB018A012091A302222389F0EB016B0155
S11334B0C40ED51ECC15DD0569F06991D701ED91D7
S11334C0FC910190F081E02DC7010995F3CF642FA1
S11334D00E947C1BC801DF91CF911F910F91FF9037
S11334E0EF90DF90CF900895CF93DF931F92CDB7E5
S11334F0DEB769832091A3022223D1F02091A40294
S1133500203240F021E030E0FC013383228380E06C
S113351090E015C08091A502E82FF0E0EA55FD4F38
S1133520998190838F5F8093A5028093A40205C044
S113353061E0CE0101960E947C1B81E090E00F9037
S1133540DF91CF910895FC011382128288EE93E0FB
S1133550A0E0B0E084839583A683B78383E391E0FE
S11335609183808308951092C8021092C70210922A
S1133570A5021092A4020E94511B8BE39AE10E94BF
S1133580A91B81E19AE10C94A41B81E08093A3021E
S11335906093C6021092A5021092A40208950F939C
S11335A0062F21E04091A40266EA72E08091C602EF
S11335B00E94B31C1092A5021092A4021092A302BE
S11335C00F9108954F925F926F927F92AF92BF9244
S11335D0CF92EF92FF920F931F93CF93DF935C01EF
S11335E0F62ED42F28013901EE2021F10E94C51AAC
S11335F0CE2DC43008F0C3E0C150C0F028E0C29F13
S1133600C0011124A301920104C056954795379532
S113361027958A95D2F7CA01B901D501ED91FC919C
S11336200190F081E02DC5010995E6CF60E0C50168
S11336300E94CF1A4D2FD13208F040E22C2D69ECB4
S113364072E08F2D0E94CA1B1092C8028093C70299
S1133650DF91CF911F910F91FF90EF90CF90BF908A
S1133660AF907F906F905F904F900895CF92EF92BC
S11336700F931F93C22EE12C00E010E098010E94EA
S1133680E21A1F910F91EF90CF90089521E00C94CE
S1133690361B61E00C94CF1A83E992E00C94A31AD0
S11336A0089510925C0381E080935A0310925903A9
S11336B061E082E10E94B61961E083E10E94B619DB
S11336C0E9EBF0E080818E7F808380818D7F808331
S11336D088E48093B80085E48093BC000895ECEB03
S11336E0F0E080818A7B808360E082E10E94B619E9
S11336F060E083E10C94B61940910B03262F30E06F
S1133700240F311D21323105DCF420915C03243077
S1133710C9F4FC0180E090E0861758F430910B0363
S11337202191DC01A35FBC4FA30FB11D2C93019623
S1133730F3CF80910B03680F60930B0380E008952F
S113374081E0089582E008959093500380934F039D
S113375008959093520380935103089585EC8093C8
S1133760BC0010925C030895CF93DF9391E0909393
S11337705403882361F0C091B800D091BA000E942C
S11337806F1B0E94511BD093BA00C093B800DF9105
S1133790CF9108954F925F926F927F928F929F92F2
S11337A0AF92BF92CF92DF92EF92FF920F931F934B
S11337B0CF93DF93F82E162F072FC42FE22E41321A
S11337C008F0BEC00E94F1184B015C01D0915C036B
S11337D0DD2331F18091550390915603A091570355
S11337E0B0915803892B8A2B8B2B81F30E94F118FB
S11337F040905503509056036090570370905803BF
S1133800DC01CB0188199909AA09BB094816590694
S11338106A067B06D8F6809153030E94B41B90C0BD
S113382081E080935C03E0925A039FEF9093E90256
S113383010922E039C0F90932D0380935B03909121
S11338405B038F2D880F892B80935B038091590331
S1133850813089F5109259030E94F1186B017C01A3
S113386080915B038093BB00809155039091560334
S1133870A0915703B0915803892B8A2B8B2BA9F065
S11338800E94F1188090550390905603A09057031E
S1133890B0905803DC01CB018C199D09AE09BF0916
S11338A088169906AA06BB0690F18091BC0083FD98
S11338B0D7CF85EC01C085EE8093BC000E94F1183F
S11338C06B017C0180915C03813031F5809155035B
S11338D090915603A0915703B0915803892B8A2BDA
S11338E08B2B81F30E94F11880905503909056031E
S11338F0A0905703B0905803DC01CB018C199D09AB
S1133900AE09BF0988169906AA06BB06D8F68091A7
S113391053030E94B41B15C080912E038C1710F41E
S1133920C0912E03AFE2B3E0912FE12FF02F8E2F41
S1133930891B8C1718F48D918193F9CFDC2F01C06A
S1133940D0E08D2FDF91CF911F910F91FF90EF90D9
S1133950DF90CF90BF90AF909F908F907F906F90AB
S11339605F904F9008954F925F926F927F928F92E3
S11339709F92AF92BF92CF92DF92EF92FF920F93FA
S11339801F93CF93DF93413208F0C6C0122FF42E59
S1133990D72EE62ED82F0E94F1184B015C01C0915E
S11339A05C03CC2311F18091550390915603A091AF
S11339B05703B0915803892B8A2B8B2B81F30E94D8
S11339C0F11840905503509056036090570370903F
S11339D05803DC01CB0188199909AA09BB094816C7
S11339E059066A067B06D8F683C082E080935C039E
S11339F000935A038FEF8093E90210922E03F09202
S1133A002D039E2DAFE2B3E0EE2DFD2D8E2F891BED
S1133A108F1518F481918D93F9CF10925B039091D7
S1133A205B03DD0FD92BD0935B0380915903813065
S1133A3089F5109259030E94F1186B017C01809161
S1133A405B038093BB008091550390915603A09132
S1133A505703B0915803892B8A2B8B2BA9F00E9412
S1133A60F1188090550390905603A0905703B0909E
S1133A705803DC01CB018C199D09AE09BF098816D6
S1133A809906AA06BB06A0F18091BC0083FDD7CF9E
S1133A9085EC01C085EE8093BC000E94F1186B0197
S1133AA07C01112359F180915C03823039F58091B6
S1133AB0550390915603A0915703B0915803892B55
S1133AC08A2B8B2B71F30E94F118809055039090F0
S1133AD05603A0905703B0905803DC01CB018C1916
S1133AE09D09AE09BF0988169906AA06BB06C8F641
S1133AF0809153030E94B41BC5E013C08091E90276
S1133B008F3F79F08091E902803241F08091E9029F
S1133B10803331F0C4E005C0C1E003C0C2E001C09D
S1133B20C3E08C2FDF91CF911F910F91FF90EF9005
S1133B30DF90CF90BF90AF909F908F907F906F90C9
S1133B405F904F90089585ED8093BC00809155035C
S1133B5090915603A0915703B09158030796A11D65
S1133B60B11D23E0B695A795979587952A95D1F72A
S1133B702091BC0024FF1CC0409155035091560372
S1133B806091570370915803452B462B472B81F3C3
S1133B900097A105B10541F025E32A95F1F700004E
S1133BA00197A109B109E4CF809153030C94B41B8C
S1133BB010925C0308951F920F920FB60F92112476
S1133BC02F933F934F935F936F937F938F939F9321
S1133BD0AF93BF93EF93FF938091B900887F8036B2
S1133BE009F49EC078F5883209F45DC090F4803100
S1133BF009F456C038F4882309F4F5C0883009F470
S1133C004FC0F5C0883109F44EC0803209F45FC05A
S1133C10EEC0803409F46AC058F4803309F457C004
S1133C20883309F0E4C08093E9020E94AE1BDFC030
S1133C30803509F44FC0883509F45DC0883409F033
S1133C40D6C0D3C0883909F4C4C0A8F4883709F4AD
S1133C5067C038F4883609F463C0803709F460C05B
S1133C60C6C0883809F4B5C0803909F45FC080380B
S1133C7009F0BDC05BC0803B09F483C038F4803ACE
S1133C8009F466C0883A09F47CC0B1C0803C09F4E8
S1133C90A4C0883C09F4A1C0883B09F487C0A7C02C
S1133CA080915B0310C090912E0380912D0398178F
S1133CB070F5E0912E0381E08E0F80932E03F0E0E7
S1133CC0E15DFC4F80818093BB0085EC83C08093D1
S1133CD0E9028BC0E0912E0381E08E0F80932E03C6
S1133CE08091BB00F0E0E15DFC4F808390912E0356
S1133CF080912D036BC0E0912E0381E08E0F8093A1
S1133D002E038091BB00F0E0E15DFC4F8083809145
S1133D105A0381116AC081E08093590384EA5EC02A
S1133D2083E080935C031092EA02CFCF8091EA0291
S1133D30803208F04EC0E091EA0281E08E0F809359
S1133D40EA028091BB00F0E0E551FD4F8083BDCFD6
S1133D500E94AE1B8091EA02803230F4E091EA02C4
S1133D60F0E0E551FD4F10826091EA0270E0E091CD
S1133D704F03F09150038BEE92E009951092EA0202
S1133D8036C084E080935C0310920C0310920B0302
S1133D90E0915103F0915203099580910B03811135
S1133DA005C081E080930B0310920D03E0910C0396
S1133DB081E08E0F80930C03F0E0E35FFC4F808181
S1133DC08093BB0090910C0380910B03981708F427
S1133DD07CCF85E88093BC000AC085EC8093BC004E
S1133DE010925C0304C01092E9020E94A31DFF918B
S1133DF0EF91BF91AF919F918F917F916F915F915F
S1133E004F913F912F910F900FBE0F901F901895D7
S1133E100E949F12880B990B0895A1E21A2EAA1BE7
S1133E20BB1BFD010DC0AA1FBB1FEE1FFF1FA21766
S1133E30B307E407F50720F0A21BB30BE40BF50B63
S1133E40661F771F881F991F1A9469F760957095EC
S1133E50809590959B01AC01BD01CF010895EE0FB3
S1133E60FF1F0590F491E02D09940F931F93CF93B6
S1133E70DF938230910510F482E090E0E0915F03DB
S1133E80F091600320E030E0A0E0B0E0309719F159
S1133E90408151810281138148175907C8F0841762
S1133EA0950769F4109731F012960C9312971396B4
S1133EB01C9327C000935F031093600322C0211555
S1133EC0310519F04217530718F49A01BD01EF01A7
S1133ED0DF01F801DBCF21153105F9F0281B390B7F
S1133EE02430310580F48A819B816115710521F0AC
S1133EF0FB019383828304C09093600380935F03E8
S1133F00FE01329644C0FE01E20FF31F81939193A8
S1133F1022503109398328833AC020915D033091BE
S1133F205E03232B41F4209102013091030130936D
S1133F305E0320935D03209100013091010121155E
S1133F40310541F42DB73EB740910401509105016C
S1133F50241B350BE0915D03F0915E03E217F30738
S1133F60A0F42E1B3F0B2817390778F0AC014E5FE5
S1133F705F4F2417350748F04E0F5F1F50935E03C1
S1133F8040935D038193919302C0E0E0F0E0CF01A0
S1133F90DF91CF911F910F910895CF93DF930097F5
S1133FA009F481C0FC01329713821282A0915F034D
S1133FB0B0916003109781F420813181820F931FA7
S1133FC020915D0330915E032817390751F5F09372
S1133FD05E03E0935D0367C0ED0120E030E0CE179F
S1133FE0DF0740F44A815B819E0141155105F1F0E0
S1133FF0EA01F5CFD383C28340815181840F951F99
S1134000C817D90759F488819981840F951F02969E
S1134010918380838A819B819383828321153105D7
S113402029F4F0936003E0935F033DC0E901FB834F
S1134030EA8349915991C40FD51FEC17FD0761F428
S113404080819181840F951F0296E9019983888369
S1134050828193819B838A83E0E0F0E012968D91C4
S11340609C911397009719F0FD01DC01F7CF8D9116
S11340709C9111979D012E5F3F4F820F931F2091BA
S11340805D0330915E032817390769F4309729F4EA
S11340901092600310925F0302C013821282B093E5
S11340A05E03A0935D03DF91CF910895FB01DC01D2
S11340B004C08D910190801921F441505040C8F7FB
S10D40C0881B990B0895F894FFCFB4
S11340CA000061032000E8032C182C182C000000BF
S11340DA00008114F7154214CE1414142E1420145B
S11340EA0D0A006E616E00696E66006F76660000E6
S11340FA000000741A471A5515101AE519ED19012A
S105410A1A0095
S9030000FC
