:100000000C948C060C94351B0C945C1B0C94B4065D
:100010000C94B4060C94B4060C94B4060C94B40678
:100020000C94B4060C94B4060C94B4060C94B40668
:100030000C94B4060C94B4060C94B4060C94B40658
:100040000C94831B0C94B4060C94D8170C940A18C7
:100050000C94B4060C94B4060C94B4060C94B40638
:100060000C9475220C94B406084AD73B3BCE016E23
:1000700084BCBFFDC12F3D6C74319ABD56833DDAFF
:100080003D00C77F11BED9E4BB4C3E916BAAAABE0E
:10009000000000803F004E414E494E495459494EA0
:1000A00046CDCCCC3D0AD7233C17B7D13877CC2BE3
:1000B000329595E6241FB14F0A000020410000C888
:1000C0004200401C4620BCBE4CCA1B0E5AAEC59D09
:1000D000742900444D5020496E697469616C697AD5
:1000E0006174696F6E206661696C65642028636F56
:1000F000646520004649464F206F766572666C6FD6
:10010000772100526573657474696E6720464946AD
:100110004F20616E6420636C656172696E6720496F
:100120004E5420737461747573206F6E65206C611A
:1001300073742074696D652E2E2E00536574746976
:100140006E6720757020696E7465726E616C203404
:10015000322D62797465202864656661756C742936
:1001600020444D50207061636B6574206275666633
:1001700065722E2E2E0044697361626C696E672071
:10018000444D502028796F75207475726E20697403
:10019000206F6E206C61746572292E2E2E00444DE6
:1001A0005020697320676F6F6420746F20676F2120
:1001B0002046696E616C6C792E00526573657474AB
:1001C000696E6720444D502E2E2E00456E61626C84
:1001D000696E67204649464F2E2E2E005365747473
:1001E000696E67207A65726F2D6D6F74696F6E200E
:1001F000646574656374696F6E2064757261746997
:100200006F6E20746F20302E2E2E0053657474692B
:100210006E67206D6F74696F6E20646574656374BA
:10022000696F6E206475726174696F6E20746F20DF
:1002300038302E2E2E0053657474696E67207A65EF
:10024000726F2D6D6F74696F6E2064657465637471
:10025000696F6E207468726573686F6C6420746F68
:10026000203135362E2E2E0053657474696E67204A
:100270006D6F74696F6E20646574656374696F6E09
:10028000207468726573686F6C6420746F20322EFE
:100290002E2E00436C656172696E67204F545020AA
:1002A00042616E6B20666C61672E2E2E0053756363
:1002B000636573732120444D5020636F646520771C
:1002C00072697474656E20616E6420766572696609
:1002D0006965642E0020627974657329005772691C
:1002E00074696E6720444D5020636F646520746F9D
:1002F000204D5055206D656D6F72792062616E6B77
:100300007320280053657474696E67206779726F73
:100310002073656E736974697669747920746F20CF
:100320002B2F2D2032303030206465672F736563AA
:100330002E2E2E0053657474696E6720444C50460F
:100340002062616E64776964746820746F2034324F
:10035000487A2E2E2E0053657474696E6720657876
:100360007465726E616C206672616D652073796E62
:100370006320746F2054454D505F4F55545F4C5B64
:10038000305D2E2E2E0053657474696E6720736184
:100390006D706C65207261746520746F203230302E
:1003A000487A2E2E2E0053657474696E6720444D72
:1003B0005020616E64204649464F5F4F464C4F5770
:1003C00020696E746572727570747320656E6162F7
:1003D0006C65642E2E2E0053657474696E672063FD
:1003E0006C6F636B20736F7572636520746F205A36
:1003F000204779726F2E2E2E0052657365747469D2
:100400006E6720493243204D617374657220636FBB
:100410006E74726F6C2E2E2E0053657474696E6745
:1004200020736C617665203020616464726573733B
:1004300020746F2030783638202873656C66292E3A
:100440002E2E0044697361626C696E6720493243E5
:10045000204D6173746572206D6F64652E2E2E00C1
:1004600053657474696E6720736C61766520302003
:100470006164647265737320746F20307837462E20
:100480002E2E00696E76616C6964210076616C695C
:100490006421004F54502062616E6B20697320000C
:1004A00052656164696E67204F54502062616E6BC3
:1004B0002076616C696420666C61672E2E2E005276
:1004C0006573657474696E67206D656D6F727920F0
:1004D00062616E6B2073656C656374696F6E207406
:1004E0006F20302E2E2E005265766973696F6E2054
:1004F0004020757365725B31365D5B365D203D2053
:1005000000436865636B696E672068617264776138
:100510007265207265766973696F6E2E2E2E000AE1
:100520000A526573657474696E67204D5055363094
:1005300035302E2E2E00FB00003E000B0036000151
:1005400000020003000000650054FFEF0000FA8085
:10055000000B1282000100020000000000000000F9
:1005600000000000000000280000FFFF4581FFFFA1
:10057000FA7200000000000003E800000001000122
:100580007FFFFFFE8001001B000000000000000054
:10059000000000000000004000004000000002CB0E
:1005A00047A22000000020000000000000004000E2
:1005B00000006000000041FF000000000B2A000066
:1005C000165500002182FD872650FD800000001F87
:1005D0000000000580000000000000010000000293
:1005E000000000030000400000000000046F000253
:1005F000653200005EC04000000000000000000006
:10060000000000000000FB8C6F5DFD5D08D9007CE0
:10061000733B006C12CC3200139D3200D0D63200F6
:100620000800400001F4FFE68079020000000000AD
:10063000D0D600002710FB000000400000000000A2
:1006400000000000000000000001000000000000A9
:100650000100010000000000FA36FFBC308E0005EA
:10066000FBF0FFD95BC8FFD09ABE000010A9FFF4D1
:100670001EB200CEBBF70000000100000004000223
:1006800000020200000CFFC280000001800000CFC9
:10069000800040000000000000000000000000009A
:1006A0000600000000140000000000000000000030
:1006B000000000000000000000000000000000003A
:1006C0000000000000000923A13500000000000028
:1006D00000000000000000000000033F68B679350C
:1006E00028BCC67ED16C8000FFFF400000000000E7
:1006F000B26A0000000000000000000000000000DE
:100700003FF000000030000000000000000000008A
:1007100000000000000000000000000000000000D9
:100720000000000040000000254D002F706D00000B
:1007300005AE000C02D00000000000650054FFEF81
:10074000000000000000000001000044000100055E
:100750008BC1000001000000000000650000005493
:100760000000FFEF0000000000000000000000009B
:100770000000000000000000000000000000000079
:100780000000000000000000000000000000000069
:100790000000000000000000000100000002000056
:1007A0000000000000000000000000000000000049
:1007B0000000000000000000000000000000000039
:1007C000000000000000001B00000000000000000E
:1007D0000000000000000000000000000000000019
:1007E0000000000000000000000000000000000009
:1007F000000000000000001B0000000000000000DE
:1008000000000000000000000000000000000000E8
:1008100000000000000000000000000000000000D8
:1008200000000000000000000000000000000000C8
:10083000000000000000D8DCBAA2F1DEB2B8B4A813
:100840008191F74A907F916AF3F9DBA8F9B0BAA0D9
:1008500080F2CE81F3C2F1C1F2C3F3CCA2B280F137
:10086000C6D880BAA7DFDFDFF2A7C3CBC5B6F08753
:10087000A2942448703C95406834589B78A2F18338
:10088000922D557DD8B1B4B8A1D09180F270F3709B
:10089000F27C80A8F101B09887D943D886C988BA7C
:1008A000A1F20EB89780F1A9DFDFDFAADFDFDFF268
:1008B000AA4CCD6CA90CC92C97979797F1A98926BA
:1008C0004666B0B4BA80ACDEF2CAF1B28C02A9B608
:1008D0009800890E161EB8A9B4992C547CB08AA829
:1008E00096365676F1B9AFB4B083C0B8A89711B1B7
:1008F0008F98B9AFF0240844106418F1A329557DEE
:10090000AF83B593AFF0002850F1A3869F61A6DABC
:10091000DEDFD9FAA38696DB31A6D9F8DFBAA68F37
:10092000C2C5C7B28CC1B8A2DFDFDFA3DFDFDFD86B
:10093000D8F1B8A8B286B4980D355DB8AA98B0873A
:100940002D353DB2B6BAAF8C96198F9FA70E161EE5
:10095000B49AB8AA872C547CB9A3DEDFDFA3B18098
:10096000F2C4CDC9F1B8A9B499830D355D89B9A395
:100970002D557DB593A30E161EA92C547CB8B4B08A
:10098000F19783A81184A50998A383F0DA24084479
:10099000106418D8F1A529557DA58595021A2E3A1F
:1009A000565A4048F9F3A3D9F8F098832408441024
:1009B00064189782A8F111F098A2240844106418D2
:1009C000DAF3DED883A59401D9A302F1A2C3C5C787
:1009D000D8F18492A24DDA2AD84869D92AD8685524
:1009E000DA32D85071D932D8705DDA3AD85879D91C
:1009F0003AD87893A34DDA2AD84869D92AD86855C5
:100A0000DA32D85071D932D8705DDA3AD85879D9FB
:100A10003AD878A88A9AF02850789EF38818F19FDF
:100A20001D98A8D908D8C89F129EF315A8DA1210ED
:100A3000D8F1AFC8978734B5B994A421F3D922D897
:100A4000F22DF3D92AD8F235F3D932D881A46060D7
:100A500061D961D86C6869D969D8747071D971D855
:100A6000B1A384193D5DA3831A3E5E9310308110BB
:100A700011B8B0AF8F94F2DA3ED8B49AA88729DAC9
:100A8000F8D8879A35DAF8D8879A3DDAF8D8B1B924
:100A9000A49885022E56A581000C14A397B08AF164
:100AA0002DD928D84DD948D86DD968D8B1840DDA58
:100AB0000ED8A32983DA2C0ED8A3844983DA2C4CD0
:100AC0000ED8B8B0A88A9AF520AADADFD8A840AA2A
:100AD000D0DADED8A860AADAD0DFD8F19786A831BC
:100AE0009B069907AB9728889BF00C201440B8B060
:100AF000B4A88C9CF0042851791D301438B282AB14
:100B0000D0982C505078789BF11AB0F08A9CA82984
:100B100051798B2951798A2470598B2058718A44D4
:100B200069388B3940688A6448318B304960A588C0
:100B3000200971584468113964493019F1AC002C0E
:100B4000547CF08CA804285078F1889726A85998EE
:100B5000AC8C02264666F0899CA8295179247059EC
:100B6000446938644831A98809205970AB1138406C
:100B700069A8193148608CA83C415C207C00F18751
:100B8000981986A86E767EA999882D557D9EB9A361
:100B90008A228A6E8A568A5E9FB183062646660E30
:100BA0002E4E6E9DB8AD002C547CF2B18CB499B928
:100BB000A32D557D8191AC38AD3AB58391AC2DD93B
:100BC00028D84DD948D86DD968D88C9DAE29D9047C
:100BD000AED851D904AED879D904D881F39DAD00EF
:100BE0008DAE1981ADD901D8F2AEDA26D88E912911
:100BF00083A7D9ADADADADF32AD8D8F1B0AC89910A
:100C00003E5E76F3AC2E2EF1B18C5A9CAC2C28288B
:100C1000289CAC3018A8988128343C9724A7283405
:100C20003C9C24F2B089AC912C4C6C8A9B2DD9D879
:100C3000D851D9D8D879D9D8D8F19E88A331DAD863
:100C4000D8912DD928D84DD948D86DD968D8B18335
:100C500093353D8025DAD8D88569DAD8D8B4938120
:100C6000A328343CF3AB8BF8A391B609B4D9ABDE1F
:100C7000FAB0879CB9A3DDF1202830389AF12830EA
:100C8000389DF1A3A3A3A3F2A3B49080F2A3A3A3DE
:100C9000A3A3A3A3A3A3A3B2A3A3A3A3A3A3B08724
:100CA000B599F128303898F1A3A3A3A397A3A3A3E0
:100CB000A3F39BA330DCB9A7F1262626FED8FF00BC
:100CC000000008000201000003040700000000000B
:100CD00000000001020408102040800102040810F6
:100CE0002001020408102004040404040404040283
:100CF00002020202020303030303030000000025B3
:100D00000028002B0000000000240027002A00001B
:100D1000AE113A18E61FEC1111241FBECFEFD8E038
:100D2000DEBFCDBF11E0A0E0B1E0ECE6FFE402C021
:100D300005900D92A237B107D9F723E0A2E7B1E001
:100D400001C01D92A639B207E1F716E0CBE8D6E064
:100D500004C02197FE010E94E323C838D107C9F7D8
:100D60000E9468180C94A9270C9400000895CF9352
:100D7000DF93EC01888199810E9479188A819B8197
:100D80000E9479188C819D81DF91CF910C94791804
:100D90006F927F928F929F92AF92BF92CF92DF928B
:100DA000EF92FF920F931F93CF93DF93EC01962E58
:100DB000672EA42E752EB22E832EA1E8B0E01C92D1
:100DC000E1EBF0E010828C9181608C938C918460D7
:100DD0008C9380818160808380818460808361E0E6
:100DE000892D0E94FD1C61E08A2D0E94FD1C61E09E
:100DF0008B2D0E94FD1C61E0802F0E94FD1C61E094
:100E00008E2D0E94FD1C61E08C2D0E94FD1C88E04F
:100E100090E00E947718FC0194826582A682778216
:100E200011821082138212829983888388E090E075
:100E30000E947718FC01B482858206831783118291
:100E40001082138212829B838A8388E090E00E9442
:100E50007718FC01E482F582C682D7821182108263
:100E6000138212829D838C83DF91CF911F910F910A
:100E7000FF90EF90DF90CF90BF90AF909F908F90BA
:100E80007F906F900895CF93DF93EC018A819B81CF
:100E9000892B41F060E070E08C810E94751C6881B4
:100EA000798107C0688179818C810E94751C60E01E
:100EB00070E08E81DF91CF910C94751C61302FEF23
:100EC00072074CF06F3F710519F014F06FEF70E08E
:100ED00077FF0CC002C061E07FEF719561957109E9
:100EE000FC01718360831382128207C0FC0171834D
:100EF000608321E030E0338322830C944307FC01BC
:100F0000808191810C945E07FF920F931F93CF9382
:100F1000DF93C62F142FF22E032F682F86EC92E05A
:100F20000E945F1F6C2F86EC92E00E940E1FCF2D57
:100F3000D02FCE01810F911D8C01C017D10731F048
:100F4000699186EC92E00E940E1FF7CF86EC92E04A
:100F50000E94E31F91E0811190E0892FDF91CF91F2
:100F60001F910F91FF900895CF93DF931F92CDB7FC
:100F7000DEB749839E012F5F3F4F41E00E94840707
:100F80000F90DF91CF910895EF92FF920F931F93EF
:100F9000CF93DF93C62F042FF22E132F682F86ECEA
:100FA00092E00E945F1F6C2F86EC92E00E940E1F61
:100FB000CF2DD12F10E0101769F0698186EC92E0F7
:100FC0000E940E1F6881229686EC92E00E940E1FFE
:100FD0001F5FF1CF86EC92E00E94E31F91E0811148
:100FE00090E0892FDF91CF911F910F91FF90EF90AB
:100FF0000895CF93DF9300D0CDB7DEB75A834983EE
:101000009E012F5F3F4F41E00E94C4070F900F9059
:10101000DF91CF9108953F924F925F926F927F92AE
:101020008F929F92AF92BF92CF92DF92EF92FF92F8
:101030000F931F93CF93DF9300D000D000D0CDB794
:10104000DEB7D82EC62E4D8379010E94CD1B4B01F1
:101050005C01312C1E829D81892F90E09C838B83C3
:101060002801612C712CED813E16C8F56D2D86ECA2
:1010700092E00E945F1F6C2D86EC92E00E940E1F92
:1010800086EC92E00E94E31F6D2D86EC92E00E94B8
:101090005F1F4B815C81431951094132510514F0A6
:1010A00040E250E06D2D86EC92E00E94E01F86EC5D
:1010B00092E00E947F1E892B09F443C0011511059F
:1010C00069F10E94CD1BDC01CB0188199909AA099D
:1010D000BB0984159505A605B70500F132C00115B9
:1010E0001105A9F10E94CD1BDC01CB0188199909DA
:1010F000AA09BB0920E030E080179107A207B307D7
:1011000030F1FD812F2F30E04E81842F440F990B59
:1011100082179307E4F48FEF8E8319C0F7012E81B5
:10112000E20FF11D27FDFA95FA83E98386EC92E040
:101130000E94871EE981FA818083FE81FF5FFE8322
:10114000B6CF8D81813208F080E2380E8CCF8E814F
:1011500026960FB6F894DEBF0FBECDBFDF91CF91BC
:101160001F910F91FF90EF90DF90CF90BF90AF90C5
:101170009F908F907F906F905F904F903F900895D9
:101180000F931F9389019A0141E00E940B081F9160
:101190000F910895DF92EF92FF920F931F93CF93D9
:1011A000DF931F92CDB7DEB7D42E79019801AE013F
:1011B0004F5F5F4F0E94C00821E030E001C0220F66
:1011C000DA94EAF799812923F70120830F90DF91C0
:1011D000CF911F910F91FF90EF90DF900895CF92E4
:1011E000DF92EF92FF920F931F93CF93DF931F92A3
:1011F000CDB7DEB7D42EC22E9701AE014F5F5F4F41
:101200000E94C0088823F1F04D2D50E04C1951097F
:101210004F5F5F4F21E030E002C0220F331FCA94BE
:10122000E2F721503109042E01C0220F0A94EAF797
:101230009981292330E002C0359527954A95E2F738
:10124000F80120830F90DF91CF911F910F91FF90B4
:10125000EF90DF90CF900895EF92FF920F931F933E
:10126000CF93DF931F92CDB7DEB7182F062FF42E42
:10127000E22E2091060130910701AE014F5F5F4FD2
:101280000E94C008898141E050E001C0440FFA94F7
:10129000EAF7EE2011F0482B02C04095482349831D
:1012A000602F812F0E94B4070F90DF91CF911F9183
:1012B0000F91FF90EF900895DF92EF92FF920F93BE
:1012C0001F93CF93DF931F92CDB7DEB7182FF62E63
:1012D000E42ED22E2091060130910701AE014F5F1E
:1012E0005F4F0E94C008882339F12E2D30E02D1960
:1012F00031092F5F3F4F81E090E002C0880F991FB6
:10130000DA94E2F70197022E01C0880F0A94EAF7F7
:10131000402F50E0BA0102C0660F771F2A95E2F70E
:10132000482F4095998149238623482B49836F2D67
:10133000812F0E94B40701C080E00F90DF91CF9110
:101340001F910F91FF90EF90DF900895FC01608353
:101350000895462F69E1FC0180810C94B4070F9336
:10136000062F23E045E06AE1FC0180810E945C09D0
:101370000F9108950F93062F23E042E06AE1FC01EC
:1013800080810E945C090F9108950F93062F22E03F
:1013900044E06BE1FC0180810E945C090F9108959B
:1013A0000F93062F22E044E06CE1FC0180810E9453
:1013B0005C090F910895462F6FE1FC0180810C9428
:1013C000B407462F60E2FC0180810C94B407462FDD
:1013D00061E2FC0180810C94B407462F62E2FC01BB
:1013E00080810C94B407643040F4262F220F620FE2
:1013F0006B5DFC0180810C94B4070895462F68E36F
:10140000FC0180810C94B407CF93DF93EC01209111
:10141000060130910701AC014F5F5F4F6AE388819D
:101420000E94C0088981DF91CF910895262F46E060
:101430006AE6FC0180810C942C09262F45E06AE6BF
:10144000FC0180810C942C0921E042E06AE6FC0159
:1014500080810C942C0921E041E06AE6FC01808146
:101460000C942C0921E047E06BE6FC0180810C9490
:101470002C09262F46E06BE6FC0180810C942C0998
:101480000F93062F23E042E06BE6FC0180810E946F
:101490005C090F910895CF93DF93EC0161E00E9406
:1014A000400A60E0CE010E94C50960E0CE010E94C2
:1014B000D00960E0CE01DF91CF910C94390A0F93EF
:1014C0001F93CF93DF93EC01009106011091070168
:1014D0009C012F5F3F4F42E062E788810E940B082A
:1014E00089819A81982789279827DF91CF911F9129
:1014F0000F9108950F931F93442359F09B01FC0112
:10150000009106011091070164E780810E940B0899
:1015100002C0FB0110821F910F910895EF92FF927C
:101520000F931F93CF93DF93EC01E0900601F090AF
:1015300007018C010F5F1F4F26E046E065E78881B9
:101540000E94EF088981DF91CF911F910F91FF9049
:10155000EF9008950F931F93CF93DF93EC010091C9
:101560000601109107019C012F5F3F4F40E060E0B2
:1015700088810E94CA088981DF91CF911F910F91C4
:101580000895262F40E060E0FC0180810C942C0936
:101590000F931F93CF93DF93EC018B010E948E0A70
:1015A000883310F06DE701C06AE0A8018881DF91FF
:1015B000CF911F910F910C94F907AB0163E1FC01EE
:1015C00080810C94F907AB0165E1FC0180810C94EA
:1015D000F907AB0167E1FC0180810C94F907262F24
:1015E00047E06AE6FC0180810C942C0921E043E08D
:1015F0006AE6FC0180810C942C096F7121116062F4
:1016000041116064462F6DE6FC0180810C94B407A3
:10161000462F6EE6FC0180810C94B407CF93DF93D4
:10162000EC012091060130910701AC014F5F5F4F43
:101630006FE688810E94C0088981DF91CF9108956B
:101640002F923F924F925F926F927F928F929F92D2
:10165000AF92BF92CF92DF92EF92FF920F931F93C0
:10166000CF93DF9300D000D01F92CDB7DEB79D831C
:101670008C831B013A012983502EEB82CA8220E021
:1016800040E069810E94FD0A602F8C819D810E944B
:10169000080BEB80EE2031F080E190E00E94E9231E
:1016A0005C0102C0A12CB12C8A81882331F080E139
:1016B00090E00E94E9236C0102C0C12CD12CE12CE6
:1016C000F12CE614F70408F07BC0C70140966816B9
:1016D000790618F4462C4E1802C080E1482E842D5D
:1016E00090E020E031E0251931092817390714F47A
:1016F000452C4194EA81EE2371F0D60180E090E020
:10170000841560F4F701E80FF91FE20DF31DE49171
:10171000ED930196F5CF6101CE0CDF1C9601442DAF
:101720006FE6EC81FD8180810E948407842C912CDE
:10173000FB81FF2361F1A114B10449F120E040E0F5
:1017400069818C819D810E94FD0A652D8C819D811E
:101750000E94080B00910601109107019501442D8C
:101760006FE6EC81FD8180810E940B08A401B50128
:10177000C6010E94DD25892B51F0C5010E948124FC
:10178000FA81FF2351F1C6010E94812426C0E80C92
:10179000F91C540CE614F70408F093CF511003C061
:1017A00089818F5F898320E040E069818C819D8100
:1017B0000E94FD0A652D8C819D810E94080B81CFBE
:1017C000EB81EE2319F0C5010E948124FA81FF23E9
:1017D00031F0C6010E94812402C080E001C081E096
:1017E0000F900F900F900F900F90DF91CF911F915E
:1017F0000F91FF90EF90DF90CF90BF90AF909F90B0
:101800008F907F906F905F904F903F902F900895B2
:10181000CF92EF920F93CC24C3940E94200B0F9190
:10182000EF90CF900895462F60E7FC0180810C94E3
:10183000B407462F61E7FC0180810C94B4070F9335
:101840001F93CF93DF93EC0180E090E0A0E9B0E438
:1018500088879987AA87BB8787E79CECABE2B2E3CE
:1018600088839983AA83BB8380E090E0A0E0BFE3F4
:101870008C839D83AE83BF83488F598F6A8F7B8F04
:101880000C8F1D8F2E8F3F8F0E94CD1B6C877D8705
:101890008E879F87DF91CF911F910F910895FC0153
:1018A00040875187628773870895FC014083518385
:1018B000628373830895FC01448355836683778331
:1018C0000895FC01448B558B668B778B08954F925E
:1018D0005F926F927F928F929F92AF92BF92CF92C0
:1018E000DF92EF92FF920F931F93CF93DF93EC0160
:1018F0002A013B010E94D91B4B015C018C859D850F
:10190000AE85BF85BC01CD01681979098A099B099B
:101910000E94E21420E034E244E759E40E943A14C1
:101920006B017C018C869D86AE86BF86A3019201E9
:101930006C897D898E899F890E9456134B015C01B9
:10194000288139814A815B810E94C815A7019601CF
:101950000E94C8152B013C01288539854A855B8585
:10196000C501B4010E94C8159B01AC01C301B201BD
:101970000E9457132B013C01288939894A895B89C8
:10198000C501B4010E945613A70196010E943A14A2
:101990002C813D814E815F810E94C8159B01AC0165
:1019A000C301B2010E9457137B018C016C8C7D8CAA
:1019B000CE8CDF8C9301A6010E94BB15181664F033
:1019C000688C798CCA8CDB8C9301A601B701C801A5
:1019D0000E94351487FF02C073018601888A998AA4
:1019E000AA8ABB8AB701C801DF91CF911F910F91DD
:1019F000FF90EF90DF90CF90BF90AF909F908F902F
:101A00007F906F905F904F90089581E08093720176
:101A10000895AF92BF92CF92EF920F93CF93DF933F
:101A200000D0CDB7DEB75C016FE175E08FE192E0E9
:101A30000E94E918C5010E94320A6EE170E080E060
:101A400090E00E94FE1B60E0C5010E94390A21E07F
:101A500041E060E1C5010E94FD0A66E0C5010E9407
:101A6000080B61E075E08FE192E00E94E91867EEF3
:101A700074E08FE192E00E94BA18C5010E940E0B3B
:101A80004AE050E0682F8FE192E00E946A196FEB04
:101A900074E08FE192E00E94E91820E040E060E00D
:101AA000C5010E94FD0A60EA74E08FE192E00E94A5
:101AB000E91863E974E08FE192E00E94BA18C50169
:101AC0000E94AA0A811103C063E874E002C06CE8B6
:101AD00074E08FE192E00E94E91860E674E08FE123
:101AE00092E00E94E9184FE760E0C5010E94F30907
:101AF00063E474E08FE192E00E94E91860E0C501C0
:101B00000E941D0A69E174E08FE192E00E94E918E9
:101B100048E660E0C5010E94F30969EF73E08FE1D8
:101B200092E00E94E918C5010E942B0A64E170E06E
:101B300080E090E00E94FE1B67ED73E08FE192E091
:101B40000E94E91863E0C5010E94400A66EA73E05A
:101B50008FE192E00E94E91862E1C5010E94FE094E
:101B600066E873E08FE192E00E94E91864E0C50145
:101B70000E94A90966E573E08FE192E00E94E918EE
:101B800061E0C5010E94AF0964E373E08FE192E078
:101B90000E94E91863E0C5010E94BA0964E073E09D
:101BA0008FE192E00E94E91863E0C5010E94C50937
:101BB0006DED72E08FE192E00E94BA184AE050E0C9
:101BC00069E877E08FE192E00E94CA1965ED72E062
:101BD0008FE192E00E94E918EE24E39400E020E017
:101BE00049E857E066E375E0C5010E94080C8823C8
:101BF00009F48AC06DEA72E08FE192E00E94E91870
:101C0000198281E08A83C12C06E122E042E050E0A3
:101C1000BE016F5F7F4FC5010E94200B63E0C501CD
:101C20000E94130C60E0C5010E94190C63E972E088
:101C30008FE192E00E94E91860E0C5010E94C10AAC
:101C400068E672E08FE192E00E94E91862E0C50167
:101C50000E94DB0966E372E08FE192E00E94E918DE
:101C60006CE9C5010E94E7096BE072E08FE192E048
:101C70000E94E91860E5C5010E94E1096CED71E080
:101C80008FE192E00E94E91860E0C5010E94ED0931
:101C90006BEC71E08FE192E00E94E91861E0C50110
:101CA0000E94160A6AEB71E08FE192E00E94E91847
:101CB000C5010E94F60A6EE971E08FE192E00E9490
:101CC000E91866E771E08FE192E00E94E91860E0B0
:101CD000C5010E94EF0A6BE371E08FE192E00E9480
:101CE000E9188AE290E0F501928B818B63E071E064
:101CF0008FE192E00E94E918C5010E94240AC50103
:101D00000E94040A80E001C081E00F900F90DF91F3
:101D1000CF910F91EF90CF90BF90AF900895CF9358
:101D2000DF93DB01FA01309719F4EC01EF85F889B4
:101D30008081918198278927982711969C938E936B
:101D40008481958198278927982713969C938E9351
:101D500012978085918598278927982715969C93B7
:101D60008E931497848595859827892798271796A9
:101D70009C938E93169780E0DF91CF910895FF9208
:101D80000F931F93CF93DF93CDB7DEB728970FB68E
:101D9000F894DEBF0FBECDBF8B01BE016F5F7F4FDA
:101DA0000E948F0EF82E81114CC069817A81072E16
:101DB000000C880B990B0E94E41420E030E040E80E
:101DC00058E30E94C815F80160837183828393836E
:101DD0006B817C81072E000C880B990B0E94E41408
:101DE00020E030E040E858E30E94C815F801648321
:101DF0007583868397836D817E81072E000C880B07
:101E0000990B0E94E41420E030E040E858E30E947F
:101E1000C815F80160877187828793876F817885FD
:101E2000072E000C880B990B0E94E41420E030E090
:101E300040E858E30E94C815F801648775878687D3
:101E400097878F2D28960FB6F894DEBF0FBECDBFB3
:101E5000DF91CF911F910F91FF9008954F925F9264
:101E60006F927F928F929F92AF92BF92CF92DF92AA
:101E7000EF92FF92CF93DF93CDB7DEB72A970FB6DD
:101E8000F894DEBF0FBECDBF7A876987FA01C480A0
:101E9000D580E680F780448455846684778480808A
:101EA0009180A280B38080859185A285B385898346
:101EB0009A83AB83BC83A3019201C701B6010E9440
:101EC000C8156D837E838F83988729813A814B81E2
:101ED0005C81C501B4010E94C8159B01AC016D81F4
:101EE0007E818F8198850E9456139B01AC010E94D0
:101EF0005713A985BA856D937D938D939C93139702
:101F0000A5019401C701B6010E94C8156D837E83A7
:101F10008F83988729813A814B815C81C301B2010B
:101F20000E94C8159B01AC016D817E818F819885CF
:101F30000E9457139B01AC010E945713E985FA8553
:101F40006483758386839783A5019401C501B401D9
:101F50000E94C8154B015C01A7019601C701B6019B
:101F60000E94C8159B01AC01C501B4010E94561323
:101F70006B017C0129813A814B815C81CA01B901E5
:101F80000E94C8159B01AC01C701B6010E945613FF
:101F90006B017C01A3019201C301B2010E94C8152B
:101FA0009B01AC01C701B6010E945713A985BA85F0
:101FB00018966D937D938D939C931B9780E02A9642
:101FC0000FB6F894DEBF0FBECDBFDF91CF91FF906B
:101FD000EF90DF90CF90BF90AF909F908F907F90C9
:101FE0006F905F904F9008952F923F924F925F9223
:101FF0006F927F928F929F92AF92BF92CF92DF9219
:10200000EF92FF920F931F93CF93DF9300D000D0F6
:1020100000D0CDB7DEB78B011A013E832D83FA01C4
:10202000C080D180E280F380A7019601C701B6018C
:102030000E94571369837A838B839C83F101848088
:102040009580A680B780A5019401C501B4010E94C6
:1020500057132B013C0129813A814B815C81C701D7
:10206000B6010E94C8156B017C01A3019201C50154
:10207000B4010E94C8159B01AC01C701B6010E94C2
:10208000571320E030E040E85FE30E9456136B01F5
:102090007C01F1012085318542855385C301B20160
:1020A0000E94C8152B013C01F10124853585468528
:1020B000578569817A818B819C810E94C8159B011B
:1020C000AC01C301B2010E945613A70196010E9400
:1020D000D613F8016083718382839383ED81FE813F
:1020E0006481758186819781C084D184E284F38480
:1020F0009B01AC010E94C8154B015C01A701960130
:10210000C701B6010E94C8159B01AC01C501B4010D
:102110000E9457130E943B169B01AC01ED81FE818A
:1021200060817181828193810E94D6136B017C0151
:10213000F8016483758386839783ED81FE81208512
:1021400031854285538564817581868197810E949E
:10215000D613F801608771878287938720E030E08B
:10216000A901ED81FE8160857185828593850E943C
:10217000351487FF1BC020E030E0A901C701B6017C
:102180000E94BB15A701960118162CF46BED7FE099
:1021900089E490E404C06BED7FE089E490EC0E9458
:1021A0005613F801648375838683978380E02696AF
:1021B0000FB6F894DEBF0FBECDBFDF91CF911F9158
:1021C0000F91FF90EF90DF90CF90BF90AF909F90D6
:1021D0008F907F906F905F904F903F902F900895D9
:1021E0008091E501882309F4B8C02091DF01309186
:1021F000E0018091E1019091E20140917201411171
:1022000003C028173907C8F3109272018CE092E0DE
:102210000E94040A8093E4018CE092E00E945F0A2D
:102220009C019093E0018093DF019091E40194FD83
:1022300003C02115344051F48CE092E00E94240A3E
:1022400064EF70E08FE192E00C94E91891FF85C093
:102250004091E1015091E2018091DF019091E00114
:102260008417950748F48CE092E00E945F0A9093EF
:10227000E0018093DF01ECCF6FE971E08CE092E048
:102280000E947A0A8091DF019091E0012091E101A2
:102290003091E201821B930B9093E0018093DF0168
:1022A0004FE951E06FE871E08CE092E00E94BF0ED0
:1022B0004FE851E063E871E08CE092E00E942E0F5D
:1022C00023E831E04FE851E067E771E08CE092E00D
:1022D0000E94F40F20EE3EE245E652E46091770161
:1022E000709178018091790190917A010E94C815CE
:1022F00060937701709378018093790190937A01CC
:1023000020EE3EE245E652E460917B0170917C0153
:1023100080917D0190917E010E94C81560937B01A0
:1023200070937C0180937D0190937E0120EE3EE2CC
:1023300045E652E460917F017091800180918101B6
:10234000909182010E94C81560937F017093800173
:102350008093810190938201089508950F931F93B4
:1023600068E68CE092E00E94A60986E092E00E9476
:10237000B60600E010E02AEF32E440E050E06AEFF9
:1023800072EC86EE91E00E941F0CEFE8F1E080E035
:1023900090E0A0E8BFE380839183A283B38314829B
:1023A000158216821782108611861286138614866D
:1023B000158616861786E3E8F1E0108211821282F4
:1023C0001382148215821682178210861186128655
:1023D00013861F910F91089586E092E00C94B70642
:1023E000CF92DF92EF92FF920F931F9326E040E08F
:1023F00052EC61E070E08FE192E00E9470178FE193
:1024000092E00E944E176BE271E08FE192E00E9431
:10241000FB1886EC92E00E944D1F88E18093B80083
:102420008CE092E00E944B0A8CE092E00E94090D41
:102430008093E3016CED70E08CE092E00E94DD0A95
:102440006CE470E08CE092E00E94E30A6BEA7FEFBC
:102450008CE092E00E94E90A68E976E08CE092E084
:102460000E94C80A8091E30181111EC061E08CE0E6
:1024700092E00E94EF0A43E050E065E07DE080E0FA
:102480000E94151B8CE092E00E94040A8093E401F4
:1024900081E08093E50180911D0290911E0290934E
:1024A000E2018093E10114C063ED70E08FE192E0FE
:1024B0000E94BA184AE050E06091E3018FE192E097
:1024C0000E94631961ED70E08FE192E00E94E918CB
:1024D00040E050E0BA0186EE91E00E94610C8BE092
:1024E000C82ED12C9AE0E92EF12C09E010E026E06C
:1024F00030E045E050E063E070E086E092E00E946A
:10250000C80666E371E08FE192E00E94FB180E942A
:10251000D91B60937301709374018093750190933C
:1025200076011F910F91FF90EF90DF90CF9008956B
:102530000F931F93CF93DF9300D000D000D0CDB77F
:10254000DEB70E94F01040917F01509180016091B0
:1025500081017091820122E030E08FE192E00E94DF
:10256000AC1A0E94D91B0091730110917401209143
:10257000750130917601DC01CB01801B910BA20B20
:10258000B30B893E9340A105B105E0F00E94D91B31
:102590006093730170937401809375019093760139
:1025A00040917F0150918001609181017091820181
:1025B00086EE91E00E94670C0E94AC1486E092E0E7
:1025C0000E947F078FE192E00E9494161816190668
:1025D0000CF061C04AE06FE172E0CE0101960E940A
:1025E000EE1A60E070E0CE0101960E942F1EFC0101
:1025F0008081803799F441E050E060E070E0CE01E6
:1026000001960E94411ECE0101960E94741EAB01EC
:10261000BC0186EE91E00E944F0C39C060E070E092
:10262000CE0101960E942F1EFC018081893699F40B
:1026300041E050E060E070E0CE0101960E94411E52
:10264000CE0101960E94741EAB01BC0186EE91E0A2
:102650000E94550C1CC060E070E0CE0101960E9403
:102660002F1EFC018081843691F441E050E060E04F
:1026700070E0CE0101960E94411ECE0101960E949B
:10268000741EAB01BC0186EE91E00E945B0CCE0192
:1026900001960E94681D26960FB6F894DEBF0FBE05
:1026A000CDBFDF91CF911F910F9108955058BB2757
:1026B000AA270E946E130C9481150E94731538F09E
:1026C0000E947A1520F039F49F3F19F426F40C94F7
:1026D00049150EF4E095E7FB0C944315E92F0E9491
:1026E000921558F3BA17620773078407950720F00D
:1026F00079F4A6F50C94B4150EF4E0950B2EBA2FD0
:10270000A02D0B01B90190010C01CA01A0011124F7
:10271000FF27591B99F0593F50F4503E68F11A16A3
:10272000F040A22F232F342F4427585FF3CF469534
:1027300037952795A795F0405395C9F77EF41F1656
:10274000BA0B620B730B840BBAF09150A1F0FF0F20
:10275000BB1F661F771F881FC2F70EC0BA0F621F0C
:10276000731F841F48F4879577956795B795F795FC
:102770009E3F08F0B0CF9395880F08F09927EE0F91
:102780009795879508950E94731560F080E891E011
:1027900009F49EEF0E947A1528F040E851E071F4A8
:1027A0005EEF0CC00C9449150C94B415E92FE07839
:1027B0000E94921540F3092E052AB1F32617370718
:1027C0004807590738F00E2E07F8E02569F0E02594
:1027D000E0640AC0EF6307F8009407FADB01B9016F
:1027E0009D01DC01CA01AD01EF930E9451140E94CA
:1027F00081150E9406145F91552339F02BED3FE0BF
:1028000049E450FD49EC0C9457130895DF93DD27FC
:10281000B92FBF7740E85FE31616170648075B0736
:1028200018F4D92F0E94C0159F938F937F936F93B5
:102830000E947B16E8E6F0E00E944C150E9481158C
:102840002F913F914F915F910E94DB15DD2351F055
:102850009058A2EA2AED3FE049EC5FE3D0785D278B
:102860000E946E13DF910C9481150E941F1508F4CD
:1028700081E008950E944E140C9481150E947A15EF
:1028800058F00E94731540F029F45F3F29F00C9432
:10289000431551110C94B5150C9449150E949215CD
:1028A00068F39923B1F3552391F3951B550BBB277F
:1028B000AA2762177307840738F09F5F5F4F220FC4
:1028C000331F441FAA1FA9F335D00E2E3AF0E0E8BB
:1028D00032D091505040E695001CCAF72BD0FE2F05
:1028E00029D0660F771F881FBB1F26173707480799
:1028F000AB07B0E809F0BB0B802DBF01FF27935851
:102900005F4F3AF09E3F510578F00C9443150C94BC
:10291000B5155F3FE4F3983ED4F3869577956795B8
:10292000B795F7959F5FC9F7880F911D9695879585
:1029300097F90895E1E0660F771F881FBB1F6217A4
:1029400073078407BA0720F0621B730B840BBA0B62
:10295000EE1F88F7E09508950E94B3146894B111B2
:102960000C94B51508950E949A1588F09F5798F019
:10297000B92F9927B751B0F0E1F0660F771F881F84
:10298000991F1AF0BA95C9F714C0B13091F00E949E
:10299000B415B1E008950C94B415672F782F8827EB
:1029A000B85F39F0B93FCCF3869577956795B395C5
:1029B000D9F73EF490958095709561957F4F8F4F34
:1029C0009F4F0895E89409C097FB3EF49095809539
:1029D000709561957F4F8F4F9F4F9923A9F0F92FE5
:1029E00096E9BB279395F695879577956795B79563
:1029F000F111F8CFFAF4BB0F11F460FF1BC06F5F49
:102A00007F4F8F4F9F4F16C0882311F096E911C05A
:102A1000772321F09EE8872F762F05C0662371F07B
:102A200096E8862F70E060E02AF09A95660F771F8F
:102A3000881FDAF7880F9695879597F90895990F6B
:102A40000008550FAA0BE0E8FEEF16161706E80778
:102A5000F907C0F012161306E407F50798F0621B99
:102A6000730B840B950B39F40A2661F0232B242B6E
:102A7000252B21F408950A2609F4A140A6958FEF8D
:102A8000811D811D089597F99F6780E870E060E0DF
:102A900008959FEF80EC0895DF93CF931F930F93DA
:102AA000FF92EF92DF927B018C01689406C0DA2ED0
:102AB000EF010E94DB15FE01E894A5912591359167
:102AC00045915591A6F3EF010E946E13FE01970107
:102AD000A801DA9469F7DF90EF90FF900F911F91B2
:102AE000CF91DF91089500240A9416161706180650
:102AF0000906089500240A94121613061406050602
:102B00000895092E0394000C11F4882352F0BB0F92
:102B100040F4BF2B11F460FF04C06F5F7F4F8F4FF5
:102B20009F4F089557FD9058440F551F59F05F3F30
:102B300071F04795880F97FB991F61F09F3F79F0DF
:102B400087950895121613061406551FF2CF469561
:102B5000F1DF08C0161617061806991FF1CF8695E3
:102B60007105610508940895E894BB2766277727C7
:102B7000CB0197F908950E941F1508F48FEF08956F
:102B80009B01AC0160E070E080E89FE30C943A1494
:102B90000E94DB150C9481150E94731538F00E9479
:102BA0007A1520F0952311F00C9443150C944915D7
:102BB00011240C94B5150E94921570F3959FC1F3E2
:102BC000950F50E0551F629FF001729FBB27F00DDB
:102BD000B11D639FAA27F00DB11DAA1F649F662730
:102BE000B00DA11D661F829F2227B00DA11D621F7F
:102BF000739FB00DA11D621F839FA00D611D221F39
:102C0000749F3327A00D611D231F849F600D211D1C
:102C1000822F762F6A2F11249F5750409AF0F1F09F
:102C200088234AF0EE0FFF1FBB1F661F771F881F08
:102C300091505040A9F79E3F510580F00C944315E8
:102C40000C94B5155F3FE4F3983ED4F386957795E1
:102C50006795B795F795E7959F5FC1F7FE2B880FAE
:102C6000911D9695879597F9089519F416F40C948B
:102C700049150C947F160E949A15B8F39923C9F34D
:102C8000B6F39F57550B87FF0E948D160024A0E6D0
:102C900040EA900180585695979528F4805C660F1D
:102CA000771F881F20F026173707480730F4621B6C
:102CB000730B840B202931294A2BA695179407946E
:102CC000202531254A2758F7660F771F881F20F0E7
:102CD00026173707480730F4620B730B840B200D5F
:102CE000311D411DA09581F7B901842F9158880F9E
:102CF0009695879508959B01AC010C94C8159F3F4C
:102D000031F0915020F4879577956795B795880FA6
:102D1000911D9695879597F9089591505040660FAB
:102D2000771F881FD2F70895FC01918D228D892F7E
:102D300090E0805C9F4F821B91098F7399270895C3
:102D4000FC01918D828D981731F0828DE80FF11D75
:102D5000858D90E008958FEF9FEF0895FC01918D90
:102D6000828D981761F0828DDF01A80FB11D5D96ED
:102D70008C91928D9F5F9F73928F90E008958FEF5B
:102D80009FEF0895FC01538D448D252F30E0842F53
:102D900090E0821B930B541710F0CF960895019783
:102DA000089580E398E1892B49F080E090E0892B39
:102DB00029F00E94301881110C9400000895FC0144
:102DC000848DDF01A80FB11DA35ABF4F2C91848DB4
:102DD00090E001968F739927848FA689B7892C93E9
:102DE000A089B1898C91837080648C93938D848D3C
:102DF000981306C00288F389E02D80818F7D80833F
:102E00000895EF92FF920F931F93CF93DF93EC01FE
:102E100081E0888F9B8D8C8D981305C0E889F98996
:102E2000808185FD26C0F62E0B8D10E00F5F1F4FB1
:102E30000F731127E02E8C8DE8120CC00FB607FC23
:102E4000FACFE889F989808185FFF5CFCE010E940C
:102E5000DF16F1CF8B8DFE01E80FF11DE35AFF4F16
:102E6000F0829FB7F8940B8FEA89FB89808180629A
:102E70000AC09FB7F894EE89FF896083E889F989D1
:102E800080818370806480839FBF81E090E0DF91C8
:102E9000CF911F910F91FF90EF900895CF93DF9303
:102EA000EC01888D8823C9F0EA89FB89808185FD42
:102EB00005C0A889B9898C9186FD0FC00FB607FCA3
:102EC000F5CF808185FFF2CFA889B9898C9185FFE4
:102ED000EDCFCE010E94DF16E7CFDF91CF910895AD
:102EE000CF92DF92EF92FF921F93CF93DF93EC018B
:102EF0006A017B01122FE889F98982E080834115FC
:102F0000514E61057105B1F060E079E08DE390E02C
:102F1000A70196010E94A723DA01C9010197A1091F
:102F2000B109B695A795979587959C01211580E1E4
:102F30003807A8F0E889F989108260E874E88EE122
:102F400090E0A70196010E94A723DA01C901019729
:102F5000A109B109B695A795979587959C01EC8530
:102F6000FD853083EE85FF852083188EEC89FD89F1
:102F70001083EA89FB89808180618083EA89FB89EB
:102F8000808188608083EA89FB8980818068808372
:102F9000EA89FB8980818F7D8083DF91CF911F91AA
:102FA000FF90EF90DF90CF90089580E090E008953B
:102FB0001F920F920FB60F9211242F938F939F930E
:102FC000EF93FF93E0912F02F09130028081E09126
:102FD0003502F091360282FD12C090818091380254
:102FE0008F5F8F7320913902821751F0E091380280
:102FF000F0E0E15EFD4F958F8093380201C0808143
:10300000FF91EF919F918F912F910F900FBE0F9095
:103010001F9018951F920F920FB60F9211242F93A5
:103020003F934F935F936F937F938F939F93AF9350
:10303000BF93EF93FF938FE192E00E94DF16FF9121
:10304000EF91BF91AF919F918F917F916F915F9120
:103050004F913F912F910F900FBE0F901F90189599
:103060008FE192E00E94941621E0892B09F420E080
:10307000822F0895EFE1F2E01382128288EE93E04E
:10308000A0E0B0E084839583A683B78383E491E0D6
:103090009183808385EC90E09587848784EC90E031
:1030A0009787868780EC90E0918B808B81EC90E015
:1030B000938B828B82EC90E0958B848B86EC90E0F6
:1030C000978B868B118E128E138E148E0895089511
:1030D0000E943A1C0E9467180E94F011C1EDD6E1CF
:1030E0000E9498122097E1F30E94D116F9CF0C9418
:1030F000E9230C948124CF92DF92EF92FF920F93F9
:103100001F93CF93DF936C017A018B01C0E0D0E075
:10311000CE15DF0581F0D8016D918D01D601ED91BD
:10312000FC910190F081E02DC6010995892B11F0E9
:103130002196EECF7E01C701DF91CF911F910F91B4
:10314000FF90EF90DF90CF9008956115710579F0B1
:10315000FB0101900020E9F73197AF01461B570BA7
:10316000DC01ED91FC910280F381E02D099480E077
:1031700090E00895EF92FF920F931F93CF93DF9308
:103180008C017B01C0E0D0E0F701EC0FFD1F6491E2
:10319000662361F0D801ED91FC910190F081E02D62
:1031A000C8010995892B11F02196EECFCE01DF9150
:1031B000CF911F910F91FF90EF900895DC01ED9159
:1031C000FC910190F081E02D099461E571E00C948F
:1031D000A5180F931F93CF93DF93EC010E94BA18A9
:1031E0008C01CE010E94E518800F911FDF91CF91D5
:1031F0001F910F9108950F931F93CF93DF93EC01CD
:103200000E94A5188C01CE010E94E518800F911F25
:10321000DF91CF911F910F9108958F929F92AF925E
:10322000BF92EF92FF920F931F93CF93DF93CDB78F
:10323000DEB7A1970FB6F894DEBF0FBECDBF7C01FD
:10324000FA01CB0119A2223008F42AE08E010F5DA9
:103250001F4F822E912CA12CB12CBF01A5019401EE
:103260000E94A723F901CA01015011096A3010F424
:10327000605D01C0695CD8016C93232B242B252B46
:1032800061F7B801C7010E94A518A1960FB6F8947E
:10329000DEBF0FBECDBFDF91CF911F910F91FF9089
:1032A000EF90BF90AF909F908F90089521153105BA
:1032B00041F4DC01ED91FC910190F081E02D642F4F
:1032C00009940C940D199A01462F50E060E070E0CB
:1032D0000C9456190F931F93CF93DF93EC010E9428
:1032E00063198C01CE010E94E518800F911FDF91B8
:1032F000CF911F910F9108959A01AB0160E070E0AA
:103300000C945619CF92DF92EF92FF920F931F9376
:10331000CF93DF932115310581F4DC01ED91FC9110
:103320000190F081E02D642FDF91CF911F910F91DB
:10333000FF90EF90DF90CF9009942A30310501F58E
:1033400077FF1DC06A017B01EC016DE20E94DE186F
:103350008C0144275527BA014C195D096E097F0974
:103360002AE0CE010E940D19800F911FDF91CF91AD
:103370001F910F91FF90EF90DF90CF9008952AE07A
:10338000DF91CF911F910F91FF90EF90DF90CF9041
:103390000C940D199A01AB01770F660B770B0C9407
:1033A00082197F928F929F92AF92BF92CF92DF92BB
:1033B000EF92FF920F931F93CF93DF938C016A01DB
:1033C0007B01722E9A01AB01C701B6010E94A223B4
:1033D000882319F064E571E027C046015701E8949D
:1033E000B7F82FEF3FEF4FE75FE7C501B4010E9449
:1033F000A22381110DC02FEF3FEF4FE75FE7C5011B
:10340000B4010E94351418161CF468E571E00CC074
:103410002FEF3FEF4FE75FE4C701B6010E94BB15F6
:10342000181694F46CE571E0C801DF91CF911F91FB
:103430000F91FF90EF90DF90CF90BF90AF909F9053
:103440008F907F900C94A5182FEF3FEF4FE75FEC24
:10345000C701B6010E94351487FDE4CF20E030E0BB
:10346000A901C701B6010E94351487FF0AC06DE2A9
:10347000C8010E94DE18EC01F7FAF094F7F8F09416
:1034800002C0C0E0D0E0B12C60E070E080E09FE3DB
:103490007B1441F020E030E040E251E40E943A1415
:1034A000B394F6CFA70196010E9457136B017C01DC
:1034B0000E94B3144B015C012AE0AB01BC01C801BE
:1034C0000E940D19C80FD91F7720B9F1C501B401A9
:1034D0000E94E2149B01AC01C701B6010E94561381
:1034E0006B017C016EE2C8010E94DE18C80FD91F73
:1034F00020E030E040E251E4C701B6010E94C81567
:103500004B015C010E94B3146B017C014AE050E066
:10351000C8010E947C19C80FD91FB60180E090E055
:103520000E94E2149B01AC01C501B4010E94561334
:103530006B017C017A947110DBCFCE01DF91CF91CA
:103540001F910F91FF90EF90DF90CF90BF90AF90C1
:103550009F908F907F9008950F931F93CF93DF9349
:10356000EC010E94D1198C01CE010E94E518800F58
:10357000911FDF91CF911F910F9108950F931F938A
:10358000CF93DF93EC010E94CD1B688779878A87F0
:103590009B87E881F9810284F385E02DCE010995AE
:1035A00097FF17C00E94CD1B088519852A853B858A
:1035B000DC01CB01801B910BA20BB30B0C811D8195
:1035C0002E813F8180179107A207B30710F38FEF79
:1035D0009FEFDF91CF911F910F910895EF92FF928E
:1035E0000F931F93CF93DF93EC017B01042F63E5CF
:1035F00071E00E94D91DC7010E94BE1A10E097FD1C
:103600000BC08017910741F0682FCE010E941C1E4D
:10361000C7010E94BE1AF3CFCE01DF91CF911F9157
:103620000F91FF90EF90089508958230E8F4E82F0D
:10363000F0E0EE0FFF1FE85FFE4F71836083813083
:1036400041F0809169008C7F482B40936900E89A93
:10365000089580916900837F440F551F440F551FC3
:10366000482B40936900E99A08951F920F920FB674
:103670000F9211242F933F934F935F936F937F93F8
:103680008F939F93AF93BF93EF93FF93E0910801C4
:10369000F09109010995FF91EF91BF91AF919F9131
:1036A0008F917F916F915F914F913F912F910F90EB
:1036B0000FBE0F901F9018951F920F920FB60F928A
:1036C00011242F933F934F935F936F937F938F9327
:1036D0009F93AF93BF93EF93FF93E0910A01F09113
:1036E0000B010995FF91EF91BF91AF919F918F9140
:1036F0007F916F915F914F913F912F910F900FBEEE
:103700000F901F9018951F920F920FB60F921124D1
:103710002F933F938F939F93AF93BF938091BD025D
:103720009091BE02A091BF02B091C0023091BC0244
:1037300023E0230F2D3720F40196A11DB11D05C0F4
:1037400026E8230F0296A11DB11D2093BC02809391
:10375000BD029093BE02A093BF02B093C0028091BD
:10376000C1029091C202A091C302B091C40201961D
:10377000A11DB11D8093C1029093C202A093C30208
:10378000B093C402BF91AF919F918F913F912F91C0
:103790000F900FBE0F901F9018952FB7F89460915F
:1037A000BD027091BE028091BF029091C0022FBFF6
:1037B00008953FB7F8948091C1029091C202A09100
:1037C000C302B091C40226B5A89B05C02F3F19F0D3
:1037D0000196A11DB11D3FBFBA2FA92F982F882791
:1037E000820F911DA11DB11DBC01CD0142E0660FEC
:1037F000771F881F991F4A95D1F708958F929F923E
:10380000AF92BF92CF92DF92EF92FF926B017C0159
:103810000E94D91B4B015C01C114D104E104F104E5
:1038200001F10E94EA1F0E94D91BDC01CB0188191B
:103830009909AA09BB09883E9340A105B10560F327
:1038400021E0C21AD108E108F10888EE880E83E071
:10385000981EA11CB11CC114D104E104F10419F794
:10386000DBCFFF90EF90DF90CF90BF90AF909F9015
:103870008F900895789484B5826084BD84B581600A
:1038800084BD85B5826085BD85B5816085BDEEE668
:10389000F0E0808181608083E1E8F0E01082808147
:1038A00082608083808181608083E0E8F0E08081B5
:1038B00081608083E1EBF0E0808184608083E0EBD5
:1038C000F0E0808181608083EAE7F0E080818460BD
:1038D0008083808182608083808181608083808119
:1038E000806880831092C10008951F93CF93DF9367
:1038F000182FEB0161E00E94FD1C209711F460E09D
:1039000004C0CF3FD10539F461E0812FDF91CF9121
:103910001F910C94391DE12FF0E0E154F34FE49135
:10392000E330F9F048F4E130B9F0E230A1F584B5C4
:10393000806284BDC8BD34C0E730E9F0E83019F1D9
:10394000E43049F580918000806280938000D093BC
:103950008B00C0938A0024C084B5806884BDC7BD35
:103960001FC080918000806880938000D093890080
:10397000C093880015C08091B00080688093B0002B
:10398000C093B3000DC08091B00080628093B000FE
:10399000C093B40005C0C038D1050CF0B5CFAFCF8F
:1039A000DF91CF911F910895833081F028F4813009
:1039B00099F08230A1F008958730A9F08830B9F0ED
:1039C0008430D1F4809180008F7D03C0809180008D
:1039D0008F7780938000089584B58F7702C084B577
:1039E0008F7D84BD08958091B0008F7703C0809152
:1039F000B0008F7D8093B0000895CF93DF9390E067
:103A0000FC01ED52F34F2491FC01E951F34F8491F5
:103A1000882361F190E0880F991FFC01EB5FF24F62
:103A2000C591D491FC01E550F34FA591B49161117A
:103A300009C09FB7F8948881209582238883EC91F0
:103A40002E230BC0623061F49FB7F8948881322F27
:103A5000309583238883EC912E2B2C939FBF06C037
:103A60008FB7F894E8812E2B28838FBFDF91CF91F9
:103A700008951F93CF93DF93282F30E0F901E1548D
:103A8000F34F8491F901ED52F34FD491F901E951CB
:103A9000F34FC491CC23C1F0162F81110E94D41C86
:103AA000EC2FF0E0EE0FFF1FE550F34FA591B4911E
:103AB0009FB7F894111104C08C91D095D82302C0FF
:103AC000EC91DE2BDC939FBFDF91CF911F91089586
:103AD000FC0180819181009711F00C94812408955C
:103AE000CF93DF93EC0188819981009711F00E94B8
:103AF0008124198218821D821C821B821A82DF9106
:103B0000CF9108950F931F93CF93DF93EC018B0117
:103B10006F5F7F4F888199810E940A25009731F05D
:103B2000998388831B830A8381E001C080E0DF9151
:103B3000CF911F910F910895CF93DF93EC0188816E
:103B40009981892B29F08A819B818617970760F4D8
:103B5000CE010E94821D882341F08C819D81892B9A
:103B600019F4E881F981108281E0DF91CF91089505
:103B7000EF92FF920F931F93CF93DF93EC017B01A2
:103B80008A01BA010E949C1D811104C0CE010E94CD
:103B9000701D07C01D830C83B701888199810E9425
:103BA000F325CE01DF91CF911F910F91FF90EF9000
:103BB0000895FC01118210821382128215821482F0
:103BC0006115710551F0FB0101900020E9F7319773
:103BD000AF01461B570B0C94B81D0895EF92FF924E
:103BE0000F931F93CF93DF936115710511F480E05C
:103BF0001CC041155105C1F07B01EC018C819D81F8
:103C00008A01080F191FB801CE010E949C1D88234C
:103C100071F3288139818C819D81B701820F931FB7
:103C20000E94F3251D830C8381E0DF91CF911F91CA
:103C30000F91FF90EF900895CF93DF9300D0CDB711
:103C4000DEB769831A8241E050E0BE016F5F7F4FAB
:103C50000E94EE1D0F900F90DF91CF910895FC010F
:103C6000248135816217730720F480819181009748
:103C700029F41092C50285EC92E00895860F971FF3
:103C80000895CF93DF93DC011496ED91FC91159785
:103C90006E177F0730F54115510519F1DF01A61B9D
:103CA000B70B9A01A417B50708F49D01DB01EC01DD
:103CB00088819981E21BF30BFD83EC83AF01461BE6
:103CC000570B260F371FBC01620F731F8A0F9B1FF4
:103CD0000E94FA25E881F9818C819D81E80FF91F06
:103CE0001082DF91CF910895FC018081918100972E
:103CF00011F00C94D02560E070E0CB010895809124
:103D0000FA0290E02091FB02821B910908959091A4
:103D1000FB028091FA02981750F4E92FF0E0E4508A
:103D2000FD4F208130E09F5F9093FB0202C02FEF98
:103D30003FEFC9010895E091FB028091FA02E81774
:103D400030F4F0E0E450FD4F808190E008958FEF73
:103D50009FEF08950895CF93DF93EC01E091D20295
:103D6000F091D3023097F1F09091FB028091FA022A
:103D70009817C0F090E0292F30E02617370754F449
:103D8000DE01A20FB31F4C91D901A450BD4F4C933B
:103D90009F5FF1CF1092FB026093FA02CB01DF919B
:103DA000CF910994DF91CF910895E091D402F091E1
:103DB000D502309729F01092D8021092D7020994B8
:103DC0000895CF92DF92EF92FF920F931F93CF93BC
:103DD000DF937C01CB018A012091D602222389F056
:103DE000EB016B01C40ED51ECC15DD0569F06991A0
:103DF000D701ED91FC910190F081E02DC70109956B
:103E0000F3CF642F0E941620C801DF91CF911F913C
:103E10000F91FF90EF90DF90CF900895CF93DF93B5
:103E20001F92CDB7DEB769832091D6022223D1F04D
:103E30002091D702203240F021E030E0FC013383B2
:103E4000228380E090E015C08091D802E82FF0E056
:103E5000E752FD4F998190838F5F8093D8028093C2
:103E6000D70205C061E0CE0101960E94162081E0D4
:103E700090E00F90DF91CF910895FC0113821282A0
:103E800088EE93E0A0E0B0E084839583A683B783B7
:103E900084E691E09183808308951092FB02109252
:103EA000FA021092D8021092D7020E94EB1F85ED01
:103EB0009EE10E9443208BEA9EE10C943E2081E02B
:103EC0008093D6026093F9021092D8021092D70222
:103ED00008950F93062F21E04091D70269ED72E01B
:103EE0008091F9020E944D211092D8021092D702BF
:103EF0001092D6020F9108954F925F926F927F9227
:103F0000AF92BF92CF92EF92FF920F931F93CF93F6
:103F1000DF935C01F62ED42F28013901EE2021F128
:103F20000E945F1FCE2DC43008F0C3E0C150C0F026
:103F300028E0C29FC0011124A301920104C056953C
:103F40004795379527958A95D2F7CA01B901D501CA
:103F5000ED91FC910190F081E02DC5010995E6CF2E
:103F600060E0C5010E94691F4D2FD13208F040E288
:103F70002C2D6CEF72E08F2D0E9464201092FB02BA
:103F80008093FA02DF91CF911F910F91FF90EF90F4
:103F9000CF90BF90AF907F906F905F904F900895BB
:103FA000CF92EF920F931F93C22EE12C00E010E00E
:103FB00098010E947C1F1F910F91EF90CF90089560
:103FC00021E00C94D01F61E00C94691F86EC92E014
:103FD0000C943D1F089510928F0381E080938D0310
:103FE00010928C0361E082E10E94391D61E083E15F
:103FF0000E94391DE9EBF0E080818E7F8083808113
:104000008D7F808388E48093B80085E48093BC0032
:104010000895ECEBF0E080818A7B808360E082E1B0
:104020000E94391D60E083E10C94391D40913E03EC
:10403000262F30E0240F311D21323105DCF4209190
:104040008F032430C9F4FC0180E090E0861758F417
:1040500030913E032191DC01A05CBC4FA30FB11D48
:104060002C930196F3CF80913E03680F60933E033B
:1040700080E0089581E0089582E00895909383039D
:104080008093820308959093850380938403089519
:1040900085EC8093BC0010928F030895CF93DF933B
:1040A00091E090938703882361F0C091B800D0918C
:1040B000BA000E9409200E94EB1FD093BA00C0935F
:1040C000B800DF91CF9108954F925F926F927F92E7
:1040D0008F929F92AF92BF92CF92DF92EF92FF9218
:1040E0000F931F93CF93DF93F82E162F072FC42F14
:1040F000E22E413208F0BEC00E94D91B4B015C0188
:10410000D0918F03DD2331F1809188039091890351
:10411000A0918A03B0918B03892B8A2B8B2B81F37F
:104120000E94D91B409088035090890360908A03B5
:1041300070908B03DC01CB0188199909AA09BB098E
:10414000481659066A067B06D8F6809186030E94B7
:104150004E2090C081E080938F03E0928D039FEF0B
:1041600090931C03109261039C0F909360038093C3
:104170008E0390918E038F2D880F892B80938E0351
:1041800080918C03813089F510928C030E94D91B99
:104190006B017C0180918E038093BB00809188032A
:1041A00090918903A0918A03B0918B03892B8A2B6C
:1041B0008B2BA9F00E94D91B8090880390908903D3
:1041C000A0908A03B0908B03DC01CB018C199D0970
:1041D000AE09BF0988169906AA06BB0690F1809120
:1041E000BC0083FDD7CF85EC01C085EE8093BC0079
:1041F0000E94D91B6B017C0180918F03813031F5C6
:104200008091880390918903A0918A03B0918B03D8
:10421000892B8A2B8B2B81F30E94D91B80908803DA
:1042200090908903A0908A03B0908B03DC01CB01AE
:104230008C199D09AE09BF0988169906AA06BB0606
:10424000D8F6809186030E944E2015C080916103AC
:104250008C1710F4C0916103A2E6B3E0912FE12F17
:10426000F02F8E2F891B8C1718F48D918193F9CF25
:10427000DC2F01C0D0E08D2FDF91CF911F910F91E6
:10428000FF90EF90DF90CF90BF90AF909F908F9076
:104290007F906F905F904F9008954F925F926F92D2
:1042A0007F928F929F92AF92BF92CF92DF92EF92C6
:1042B000FF920F931F93CF93DF93413208F0C6C054
:1042C000122FF42ED72EE62ED82F0E94D91B4B0189
:1042D0005C01C0918F03CC2311F1809188039091F0
:1042E0008903A0918A03B0918B03892B8A2B8B2B96
:1042F00081F30E94D91B40908803509089036090FD
:104300008A0370908B03DC01CB0188199909AA09F3
:10431000BB09481659066A067B06D8F683C082E0B8
:1043200080938F0300938D038FEF80931C03109273
:104330006103F09260039E2DA2E6B3E0EE2DFD2D09
:104340008E2F891B8F1518F481918D93F9CF1092C0
:104350008E0390918E03DD0FD92BD0938E03809125
:104360008C03813089F510928C030E94D91B6B015C
:104370007C0180918E038093BB0080918803909193
:104380008903A0918A03B0918B03892B8A2B8B2BF5
:10439000A9F00E94D91B8090880390908903A09077
:1043A0008A03B0908B03DC01CB018C199D09AE0907
:1043B000BF0988169906AA06BB06A0F18091BC0029
:1043C00083FDD7CF85EC01C085EE8093BC000E94B1
:1043D000D91B6B017C01112359F180918F0382302D
:1043E00039F58091880390918903A0918A03B09157
:1043F0008B03892B8A2B8B2B71F30E94D91B809006
:10440000880390908903A0908A03B0908B03DC010D
:10441000CB018C199D09AE09BF0988169906AA0619
:10442000BB06C8F6809186030E944E20C5E013C0EB
:1044300080911C038F3F79F080911C03803241F002
:1044400080911C03803331F0C4E005C0C1E003C09B
:10445000C2E001C0C3E08C2FDF91CF911F910F917B
:10446000FF90EF90DF90CF90BF90AF909F908F9094
:104470007F906F905F904F90089585ED8093BC0082
:104480008091880390918903A0918A03B0918B0356
:104490000796A11DB11D23E0B695A7959795879521
:1044A0002A95D1F72091BC0024FF1CC040918803BD
:1044B0005091890360918A0370918B03452B462BA1
:1044C000472B81F30097A105B10541F025E32A951B
:1044D000F1F700000197A109B109E4CF80918603AB
:1044E0000C944E2010928F0308951F920F920FB6D6
:1044F0000F9211242F933F934F935F936F937F936A
:104500008F939F93AF93BF93EF93FF938091B900E5
:10451000887F803609F49EC078F5883209F45DC042
:1045200090F4803109F456C038F4882309F4F5C0BA
:10453000883009F44FC0F5C0883109F44EC080328C
:1045400009F45FC0EEC0803409F46AC058F48033C7
:1045500009F457C0883309F0E4C080931C030E941B
:104560004820DFC0803509F44FC0883509F45DC0AC
:10457000883409F0D6C0D3C0883909F4C4C0A8F47F
:10458000883709F467C038F4883609F463C0803787
:1045900009F460C0C6C0883809F4B5C0803909F490
:1045A0005FC0803809F0BDC05BC0803B09F483C0A8
:1045B00038F4803A09F466C0883A09F47CC0B1C086
:1045C000803C09F4A4C0883C09F4A1C0883B09F4EC
:1045D00087C0A7C080918E0310C090916103809125
:1045E0006003981770F5E091610381E08E0F80936E
:1045F0006103F0E0EE59FC4F80818093BB0085ECB5
:1046000083C080931C038BC0E091610381E08E0F17
:10461000809361038091BB00F0E0EE59FC4F8083F2
:1046200090916103809160036BC0E091610381E030
:104630008E0F809361038091BB00F0E0EE59FC4F38
:10464000808380918D0381116AC081E080938C0307
:1046500084EA5EC083E080938F0310921D03CFCF66
:1046600080911D03803208F04EC0E0911D0381E06F
:104670008E0F80931D038091BB00F0E0E25EFC4F43
:104680008083BDCF0E94482080911D03803230F48A
:10469000E0911D03F0E0E25EFC4F108260911D038B
:1046A00070E0E0918203F09183038EE193E009953D
:1046B00010921D0336C084E080938F0310923F0355
:1046C00010923E03E0918403F09185030995809157
:1046D0003E03811105C081E080933E0310924003A8
:1046E000E0913F0381E08E0F80933F03F0E0E05CB8
:1046F000FC4F80818093BB0090913F0380913E03EB
:10470000981708F47CCF85E88093BC000AC085EC3C
:104710008093BC0010928F0304C010921C030E946F
:104720003D22FF91EF91BF91AF919F918F917F912A
:104730006F915F914F913F912F910F900FBE0F900E
:104740001F9018950E941F15880B990B0895A1E2E0
:104750001A2EAA1BBB1BFD010DC0AA1FBB1FEE1FFB
:10476000FF1FA217B307E407F50720F0A21BB30B46
:10477000E40BF50B661F771F881F991F1A9469F7C2
:1047800060957095809590959B01AC01BD01CF011E
:104790000895A29FB001B39FC001A39F700D811D1A
:1047A0001124911DB29F700D811D1124911D08953A
:1047B0000E94C923A59F900DB49F900DA49F800DCA
:1047C000911D11240895EE0FFF1F0590F491E02D27
:1047D00009940F931F93CF93DF938230910510F4C8
:1047E00082E090E0E0919203F091930320E030E0CA
:1047F000A0E0B0E0309719F140815181028113812E
:1048000048175907C8F08417950769F4109731F0D5
:1048100012960C93129713961C9327C00093920341
:104820001093930322C02115310519F04217530745
:1048300018F49A01BD01EF01DF01F801DBCF21156A
:104840003105F9F0281B390B2430310580F48A81B9
:104850009B816115710521F0FB019383828304C064
:104860009093930380939203FE01329644C0FE011D
:10487000E20FF31F819391932250310939832883EA
:104880003AC02091900330919103232B41F4209161
:104890000201309103013093910320939003209102
:1048A0000001309101012115310541F42DB73EB7CA
:1048B0004091040150910501241B350BE0919003B8
:1048C000F0919103E217F307A0F42E1B3F0B28177A
:1048D000390778F0AC014E5F5F4F2417350748F079
:1048E0004E0F5F1F509391034093900381939193D8
:1048F00002C0E0E0F0E0CF01DF91CF911F910F9176
:104900000895CF93DF93009709F481C0FC0132979B
:1049100013821282A0919203B0919303109781F4B5
:1049200020813181820F931F209190033091910358
:104930002817390751F5F0939103E093900367C06E
:10494000ED0120E030E0CE17DF0740F44A815B81C3
:104950009E0141155105F1F0EA01F5CFD383C283E1
:1049600040815181840F951FC817D90759F4888158
:104970009981840F951F0296918380838A819B8100
:10498000938382832115310529F4F0939303E093F7
:1049900092033DC0E901FB83EA8349915991C40F19
:1049A000D51FEC17FD0761F480819181840F951F5D
:1049B0000296E90199838883828193819B838A830C
:1049C000E0E0F0E012968D919C911397009719F01A
:1049D000FD01DC01F7CF8D919C9111979D012E5F18
:1049E0003F4F820F931F209190033091910328171E
:1049F000390769F4309729F41092930310929203C7
:104A000002C013821282B0939103A0939003DF91AE
:104A1000CF910895A0E0B0E0E0E1F5E20C947627B4
:104A2000EC01009721F4CB010E94E923B4C0FC0102
:104A3000E60FF71F9C0122503109E217F30708F433
:104A4000A8C0D9010D911C91119706171707B0F056
:104A50000530110508F49BC0C80104978617970715
:104A600008F495C002501109061B170B019311930E
:104A70006D937C93CF010E94812489C05B01A01AB1
:104A8000B10A4C01800E911EA0919203B091930344
:104A9000612C712CE12CF12C109709F446C08D91FA
:104AA0009C911197A815B905B1F56C0142E0C40EAF
:104AB000D11CCA14DB0478F14C018A189B086401EC
:104AC00042E0C40ED11C1296BC9012971396AC9182
:104AD000B5E0CB16D10440F0B282A38391828082EC
:104AE000D9016D937C9309C00E5F1F4F800F911FFA
:104AF000F90191838083EB2DFA2FE114F10431F059
:104B0000D7011396FC93EE93129741C0F093930351
:104B1000E09392033CC06816790608F43C017D01DD
:104B200012960D90BC91A02DB7CF809190039091DB
:104B3000910388169906E1F466167706C8F4809109
:104B4000000190910101009741F48DB79EB740910B
:104B5000040150910501841B950BE817F907C8F46F
:104B6000F0939103E0939003F901718360830FC088
:104B7000CB010E94E9237C01009759F0A801BE01F6
:104B80000E94EA25CE010E948124C70104C0CE0103
:104B900002C080E090E0CDB7DEB7EEE00C94922743
:104BA000662777270C94092691110C945727803299
:104BB00019F089508550C8F70895FB01DC0104C045
:104BC0008D910190801921F441505040C8F7881B05
:104BD000990B0895FB01DC0102C001900D92415038
:104BE0005040D8F70895FB01DC0101900D920020A0
:104BF000E1F70895FB01DC014150504048F001907D
:104C00000D920020C9F701C01D9241505040E0F7BD
:104C10000895A0E0B0E0EFE0F6E20C947827EC0114
:104C20006B016115710519F0FB01918380837E0191
:104C3000FFEFEF1AFF0A0881802F90E00E94D42531
:104C4000892B11F0E701F3CF0D3239F47E0182E0B8
:104C5000E80EF11C098111E008C00B3229F47E0135
:104C600092E0E90EF11C098110E0E701219743E091
:104C700050E06EE970E0CE010E945A27892BC1F402
:104C8000239645E050E069E970E0CE010E945A2782
:104C9000892B09F42596C114D10419F0F601D183AA
:104CA000C0831111F6C060E070E080E89FE7FAC0B1
:104CB00043E050E066E970E0CE010E945A27892B5C
:104CC00059F4C114D10409F4E9C0F2E0EF0EF11C6B
:104CD000F601F182E082E2C020E030E0A901C0E00C
:104CE000D0E0F70180EDA82EA00E89E08A1530F102
:104CF000912F9260B92E812F887012FF04C081110C
:104D000024C0219622C081112197A5E0B0E00E9425
:104D1000D823DC01CB01880F991FAA1FBB1F9C0160
:104D2000AD012A0D311D411D511D283989E9380772
:104D3000480789E1580748F0166006C09EEFA9129F
:104D40000AC013FD40C01860B12E8FEFE81AF80AB0
:104D500000811B2DC6CF802F8F7D8534A1F58081EA
:104D60008D3211F4106106C08B3221F0319661E072
:104D700070E004C08181329662E070E080538A3036
:104D800018F0E61BF70B1FC060E070E060389CE095
:104D900079075CF4DB01AA0FBB1FAA0FBB1F6A0FC8
:104DA0007B1F660F771F680F711D3196DF0111970A
:104DB0008C9180538A3050F314FF03C07195619534
:104DC0007109C60FD71F11FF08C0C114D10429F003
:104DD000CF010197F60191838083CA01B9010E9436
:104DE000E214212F2370233019F04B015C0106C01F
:104DF0004B015C01B7FAB094B7F8B09420E030E012
:104E0000A901C501B4010E943514882309F43EC0EC
:104E1000D7FF06C0D195C195D10905EB10E002C0BE
:104E20000DEC10E06801F8E1CF1AD10890E2E92E0C
:104E3000F12CCE15DF0574F0F801259135914591DF
:104E40005491C501B4010E94C8154B015C01CE19F3
:104E5000DF09EFCF04501109F594E7940C151D05F7
:104E600041F78A2D880F8B2D881F8F3F49F020E056
:104E700030E0A901C501B4010E943514811106C0BA
:104E800082E290E09093950380939403C501B4016E
:104E900009C060E070E080E89FEF04C060E070E06F
:104EA00080EC9FE7CDB7DEB7ECE00C949427992710
:104EB00088270895FB01DC014150504088F08D9116
:104EC00081341CF08B350CF4805E659161341CF0EC
:104ED0006B350CF4605E861B611171F3990B0895BC
:104EE000881BFCCF2F923F924F925F926F927F92DE
:104EF0008F929F92AF92BF92CF92DF92EF92FF92EA
:104F00000F931F93CF93DF93CDB7DEB7CA1BDB0B95
:104F10000FB6F894DEBF0FBECDBF09942A8839883A
:104F200048885F846E847D848C849B84AA84B98441
:104F3000C884DF80EE80FD800C811B81AA81B9814D
:104F4000CE0FD11D0FB6F894DEBF0FBECDBFED0161
:104F5000089516E0CBE8D6E004C0FE010E94E323EA
:0C4F60002196CC38D107C9F7F894FFCF98
:104F6C00000096032000E803141B141B74756E6577
:104F7C00207374617274002E006B70203D20006BE6
:104F8C0069203D20006B64203D2000696E6974200F
:104F9C00737461727400696E697420656E640000CC
:104FAC0000000001177B18C2164E179416AE16A0FF
:104FBC00160D0A006E616E00696E66006F766600F3
:104FCC00000000000E1FE11ED517AA1E7F1E871EB3
:024FDC009B1E1A
:00000001FF
